:020000040002F8
:1060000068630020FD62020005630200076302006E
:10601000096302000B6302000D6302000000000030
:106020000000000000000000000000000F630200FC
:1060300011630200000000001363020015630200F8
:10604000B167020017630200716A02001763020061
:106050001763020017630200AD64020017630200B9
:106060001763020017630200176302001763020040
:106070001763020017630200176302001763020030
:106080001763020009680200176302001763020029
:106090008D68020017630200916802001763020016
:1060A0001763020017630200176302001763020000
:1060B00017630200C5660200000000000000000037
:1060C00017630200176302001763020017630200E0
:1060D00017630200176302001763020017630200D0
:1060E000176302001763020017630200000000003C
:1060F00000000000176302000000000017630200A8
:10610000000000000000000000000000000000008F
:10611000000000000000000000000000000000007F
:10612000000000000000000000000000000000006F
:10613000000000000000000000000000000000005F
:10614000000000000000000000000000000000004F
:10615000000000000000000000000000000000003F
:10616000000000000000000000000000000000002F
:10617000000000000000000000000000000000001F
:10618000000000000000000000000000000000000F
:1061900000000000000000000000000000000000FF
:1061A00000000000000000000000000000000000EF
:1061B00000000000000000000000000000000000DF
:1061C00000000000000000000000000000000000CF
:1061D00000000000000000000000000000000000BF
:1061E00000000000000000000000000000000000AF
:1061F000000000000000000000000000000000009F
:10620000DFF810D000F014F900480047DD870200E5
:10621000AFF300806863002030B4044654E8000FF8
:106220000D4644E80053002BF8D1156030BC704790
:1062300030B4044654E8000F40EA010544E8005336
:10624000002BF7D1156030BC704730B4044654E8D9
:10625000000F00EA010544E80053002BF7D1156058
:1062600030BC704730B4044654E8000F80EA0105A2
:1062700044E80053002BF7D1156030BC704730B4B0
:10628000044654E8000F00EB010544E80053002BDE
:10629000F7D1156030BC704730B4044654E8000FA5
:1062A000A0EB010544E80053002BF7D1156030BC8A
:1062B000704770B404464FF0000054E8006F0D685A
:1062C000AE4207BF44E80023012044E800630E60AB
:1062D000002B1CBF0020F0E770BC704730B40446B0
:1062E00054E8000F88422CBF451A054644E8005385
:1062F000002BF5D1156030BC704700000648804780
:1063000006480047FEE7FEE7FEE7FEE7FEE7FEE79A
:10631000FEE7FEE7FEE7FEE7956802000162020085
:106320002DE9F05F0546002092469B4688460646CA
:10633000814640241BE0284641464746224600F05D
:1063400067F853465A46C01A914110D31146184671
:10635000224600F016F82D1A67EB01084F46224638
:106360000120002100F00DF817EB00094E41201E1E
:10637000A4F10104DFDC484631462A464346BDE825
:10638000F09F202A04DB203A00FA02F10020704737
:106390009140C2F1200320FA03F319439040704763
:1063A00000487047ACB3020040EA01039B0703D0EA
:1063B00009E008C9121F08C0042AFAD203E011F844
:1063C000013B00F8013B521EF9D27047D2B201E006
:1063D00000F8012B491EFBD270470022F6E710B5EA
:1063E00013460A4604461946FFF7F0FF204610BD43
:1063F000421C10F8011B0029FBD1801A704703468C
:1064000011F8012B00F8012B002AF9D1184670472A
:10641000202A04DB203A21FA02F00021704721FAF9
:1064200002F3D040C2F12002914008431946704760
:10643000064C074D06E0E06840F0010394E80700D1
:1064400098471034AC42F6D3FFF7DEFE00BB0200E3
:1064500020BB020070B58C1810F8015B15F0070323
:1064600001D110F8013B2A1106D110F8012B03E0ED
:1064700010F8016B01F8016B5B1EF9D12B0705D4F5
:106480000023521E0DD401F8013BFAE710F8013B3E
:10649000CB1A921C03E013F8015B01F8015B521E5A
:1064A000F9D5A142D8D3002070BD00002DE9F04FEE
:1064B00000268DB0DFF8A081B14604964FF48075B8
:1064C000012437460596284602F074FF38B1D8F803
:1064D0000403204203D0284602F062FF26432D1D0C
:1064E00064007F1CADB2082FEDD34FF4BE7420467C
:1064F00002F060FF48B1204602F052FF46F000462D
:1065000004AA0221002002F035FF544C16F0FF0FC0
:1065100015D00127002537420DD008EB8501D1F8B1
:106520001005D1F81015C0F3052054F82520C1F34B
:10653000014102B190477F006D1C082DEBD3002E66
:106540007EDA0020CDF82890411E0DF1100B07AA2D
:10655000CDF82C9042F82010401C91460228F9D327
:1065600000252E46A11911F8607F91F9000027F04F
:10657000C008401C40D007A9404602F0B2FB40B31F
:106580004FEA971A404601F0C3FC54F820701FB13F
:10659000BAF1030F03D006E0BAF1030F2CD10AA918
:1065A000404602F0A6FB02A8CDF8088002F0A0FE4B
:1065B000029900EB8100D0F8000704A9C0F3014064
:1065C0000290404602F08DFB0028029802D002287B
:1065D00002D011E003280FD1BAF1030F08D10298BD
:1065E000022833D00221404602F04DFE6D1CEDB270
:1065F00017B151464046B847761C042EB2D3002D41
:1066000021D001AA0221002002F0B4FE00205A4647
:106610000DF1040152F8206051F82030B34217D038
:1066200000200AAE4FEA090351F8207042F82070AA
:1066300056F8207043F82070401C0228F4D300E084
:1066400001E0002D8CD10DB0BDE8F08F0321CAE729
:10665000401C0228DED3F6E7006000400839002025
:1066600000F01F02012191404009800000F1E0206C
:10667000C0F88012704700F01F02012191404009CC
:10668000800000F1E020C0F80011704700F01F0208
:10669000012191404009800000F1E020C0F8001283
:1066A00070474907090E002806DA00F00F0000F1D4
:1066B000E02080F8141D704700F1E02080F80014FD
:1066C000704700002DE9FE434FF48078404603F008
:1066D000D7F90126334F344C002570B3404603F000
:1066E000D7F9A07C26EA000104EB810252682AB99E
:1066F000627C022A02D0E07C90B119E08DF808504B
:10670000E574627C022A08D004EB800042680192A2
:106710004560A1748DF8006007E001956674F9E7A3
:1067200097E807008DE80700E67421686846884707
:10673000607C022828D1667426E0FFE74FF4827857
:10674000404603F09DF9F8B1404603F0A1F917481F
:10675000056065748DF808508DF80050A07C04EB3E
:106760008001486820B101904D60216868468847E3
:10677000A07C864304EB8600416821B1019145600D
:10678000216868468847A574207D002808D00C370A
:1067900097E807008DE80700257521686846884757
:1067A000BDE8FE83BCB00200C439002000D5014022
:1067B00070B54FF48076304602F0E2FB114CB5051F
:1067C00060B1304602F0E3FB0120C5F808036079B0
:1067D00020B9012060712168002088474FF482763B
:1067E000304602F0CDFB00280AD0304602F0CFFB45
:1067F0000220C5F808032168BDE870400120084761
:1068000070BD0000282B002007480021C0F840116F
:10681000C0F84411C0F84811C0F84C11C0F800117C
:10682000C0F8041104F096BA0010014000F026B937
:1068300070B50E46144900EB400001EBC00514464C
:10684000E86A183520B101280FD0022805D113E0DD
:10685000284600F047F9A04201D2002411E0224668
:106860003146284600F083F90BE0284600F03AF95B
:10687000A042F4D20446F2E73146284600F04AF935
:106880000446204670BD0000DC40002004F0B0B992
:1068900003F0F2BA30B54FF0805000228300D0F8F8
:1068A0003011C3F80C21C3F81021624B1A60624BFF
:1068B0001B68624C2360604B1B1D1B68241D2360FA
:1068C0005D4B08331B68241D23605B4B0C331B6836
:1068D000241D2360584B10331B68241D2360564B26
:1068E00014331B68241D2360534B18331B68534C0F
:1068F00020342360504B1C331B68241D23604E4BF7
:1069000020331B68241D23604B4B24331B68241D3C
:106910002360494B28331B68241D2360464B2C33CE
:106920001B68241D2360444B30331B68434C4034A8
:106930002360414B34331B68241D23603E4B3833A6
:106940001B68241D23603C4B3C331B68241D2360C3
:10695000394B40331B68241D23600124082902D1D0
:10696000D0F8343113B1082904D006E0354B34494E
:10697000196005E0D0F8343113B1082904D006E0DD
:10698000314BFB21196005E0D0F8343113B10829EF
:1069900008D00EE090F858322C48016863F30301E8
:1069A000016002E0D0F834311BB929494FF400707E
:1069B000086028480168C90702D06FF00101016032
:1069C0002548016841F470010160BFF34F8FBFF3A8
:1069D0006F8F4FF01021D1F80002002803DBD1F8AF
:1069E0000402002822DA1D4B1C601D480468002C9C
:1069F000FCD01224C1F800420568002DFCD0C1F87B
:106A0000044201680029FCD01A6001680029FCD00A
:106A1000BFF34F8F10487C380168124A01F4E061DF
:106A200011430160BFF34F8F00BFFDE70F490E48D0
:106A3000086030BD380500400404001020C5004047
:106A4000488103008C56004018F50040E40E0040D9
:106A5000409602400004004088ED00E004E501405B
:106A600000E401400400FA050090D003D02B002080
:106A70000148006800470000302B002010B5124C80
:106A800002202061606111A0A06104F17800E06142
:106A90004FF4007020620020A06260620BA1A1642C
:106AA000E06204F51E71E1641021A065C4E91410D0
:106AB000E06509A1E01DFFF7A2FC08A12046FFF751
:106AC0009EFC2020A07110BDDC4000205465726D3A
:106AD000696E616C000000005254540053454747F2
:106AE000455200000269C1688A4203D88068401A92
:106AF000104400E0501A401E704700F01F020121B0
:106B000091404009800000F1E020C0F88012C0F8F8
:106B1000001170472DE9F047C468174689460646BC
:106B20004FF000083069A04201D9051B02E0B168AE
:106B3000201A0D1AB0686D1E001BA84200D8054629
:106B4000BD4200D33D4670682A4620444946FFF7BF
:106B50002BFCB0687F1B2C44A844A944A04200D160
:106B60000024F460002FDDD14046BDE8F0872DE918
:106B7000F04104468846D4E90207C51BE168606815
:106B800016460844B54206D94146FFF70DFCB81930
:106B9000E060BDE8F0812A464146FFF705FC761B20
:106BA00008EB050132466068FFF7FEFBE660F0E7A0
:106BB00002E008C8121F08C1002AFAD170477047C6
:106BC000002001E001C1121F002AFBD17047000024
:106BD0000121202803DA81400548014003E04028D4
:106BE00002DA2038814009B1012070470020704747
:106BF000FC06FFBD10B501220221002001F014F8AF
:106C000008B1072810D107220221012001F00CF859
:106C100008B1072808D100210A22084601F004F82B
:106C200008B1072800D1002010BD000010B572B6D1
:106C300002F046FE02F08CFC0028FBD111481249FC
:106C4000401AC408012000EB044010A102F098FD96
:106C500011480068C00700D000BE022000EB0440CD
:106C60000EA102F08DFDBFF34F8F0B48E438016891
:106C70000E4A01F4E06111430160BFF34F8F00BF82
:106C8000FDE7000080BB020030BB0200466174617A
:106C90006C206572726F7200F0ED00E053797374CE
:106CA000656D207265736574000000000400FA05CC
:106CB0000EB500210091CDE901106A4644F20100B1
:106CC000FFF7B4FF0EBD10B58268C368934203D0CE
:106CD00001F08EFB002010BD052010BD10B58268AC
:106CE000C3689A1A83889A4203D801F08BFB00206C
:106CF00010BD042010BD000001480068704700006E
:106D000004150140084B9B7823B12AB120B10068DB
:106D1000037C1BB1082070470720704700230374D1
:106D20004174426118467047DC39002070B503F0A9
:106D3000E1FD104800240B21047044700E4D817059
:106D400014206C602C706C70FFF78AFC06211420F4
:106D5000FFF7A7FC1420FFF78EFC0848046006210B
:106D60001120FFF79EFC0548001F0068A860002066
:106D700070BD0000DC390020382B002008150140D0
:106D80002DE9FC47DFF8789099F8023073B368B3C7
:106D9000052902D20720BDE8FC87436933B3437C51
:106DA000012B25D0002704460025884616468DF87D
:106DB0000050684600F062F801A804F0C7F8C8B1B6
:106DC000012101700F4944600968C0E90218C0E957
:106DD00004769DF8040089F801009DF8000000F099
:106DE00071F81420FFF752FC2846D4E70820D2E7B8
:106DF0000F46D8E704259DF8000000F063F8F3E79C
:106E0000DC390020041501400649897839B130B1D8
:106E1000416921B100210174022103F077BF0820EC
:106E200070470000DC39002010B501461048FFF71C
:106E300055FF040019D10F480F4A0178515C19B170
:106E4000001D03F093FA02E00C3003F037FA60B94A
:106E5000084907480839FFF736FF30B905490122CC
:106E60000839044802F0E0F80446204610BD00004E
:106E7000F83A0020542B0020142B002030B5EFF3FB
:106E8000108172B60D4A9468012324B10370002961
:106E900000D162B630BD93604FF0E023D3F880514B
:106EA000074C25401560C3F88041D3F884415460F5
:106EB0005A17C3F8842100220270E8E7083B00203B
:106EC000FC06FFBD0B498A68002A11D000280FD1AB
:106ED000EFF3108072B60B684FF0E022C2F8003179
:106EE0004B68C2F8043100228A60002800D162B6E3
:106EF00070470000083B002070B51500044609D01B
:106F00000020286034B1206820B1A079800703D028
:106F1000072070BD0E2070BD084600F017FBC0B200
:106F2000142804D02179814203D8042070BD0520A3
:106F300070BDE288216800FB02102860002070BD4F
:106F4000064908798A78904207D0887008B10128EC
:106F500001D003F043B903F029B97047A02A0020FB
:106F60002DE9FC47002517880646158090F82D006E
:106F70001446894630B13A462146484600F0FAFAAE
:106F8000051E09D1B0784FF00C0A18B32088C84606
:106F9000001DB84202D95046BDE8FC87684679DF3B
:106FA0000028F9D12088032108F800102088192131
:106FB000401C80B2208008F800102088401C80B25D
:106FC000208000EB0801BDF8000003F00DFF2188D0
:106FD00008442080F0780222C8B1218896F9033055
:106FE00001F1030C4846BC45D5D8425421884FF0E6
:106FF000010C491C89B2218000F801C02188491C7C
:1070000089B2218009F801302088401C20807068F6
:10701000B8B1218890F9003001F1030C4846BC4515
:10702000B9D8425421880A22491C89B2218042548D
:107030002188491C89B2218009F801302088401C30
:107040002080308950B1CDE900474B46062202210D
:1070500006F1080003F092FF051E9DD1308A50B161
:10706000CDE900474B460722032106F1100003F04B
:1070700085FF051E90D1308B50B1CDE900474B46BE
:107080001522142106F1180003F078FF051E83D1A4
:10709000306A30B13B462246494601F0A0F8051E51
:1070A000DBD1706A30B13B462246494601F0A2FC72
:1070B000051ED2D196F82C0038B13B4622464946EF
:1070C000304603F0BBFC051EC7D1307838B13B46D3
:1070D00022464946304601F017FD051EBDD128461F
:1070E0005AE718B504460020ADF8000013466A467A
:1070F000204600F006F8002802D0BDF80000204429
:1071000018BD70B588B182B10024158803E0065D12
:10711000641C3444A4B2A54203D8061976789E4272
:1071200001D08C42F3D38C4201D3002070BDA11C4E
:107130001180005D401E80B270BD80F83010704735
:107140002DE9F0470E00044606D02CB196F87A00DF
:107150000025012803D006E00E20BDE8F08796F850
:107160009800012821D04FF00109A5702C2206F1CA
:107170007801201DFFF718F984F83050D6F8A400E4
:107180006063D6F8A800A0634FF6FF70A4F8480229
:1071900004F50D70C4F84402C4F84A52A4F84E52E3
:1071A00084F85052207810B104E00720D5E7FF2082
:1071B00084F8540004F15501C4F8341294F8240002
:1071C000EE274FF01F0801281FD0A4F8388200BF17
:1071D00004F50E723046FFF7C3FE0028BDD116F14C
:1071E0003C0F18D004F24311C4F83C1294F8240068
:1071F00001280DD0A4F8408204F5107206F13C007D
:10720000FFF7AEFE0028A8D109E0A4F83872DFE746
:10721000A4F84072F0E7C4F83C52A4F8405284F855
:107220005190208BA4F8480084F83C90256484F8A1
:107230005050606960644E4604F13C02002104F144
:10724000540072DF002888D1267086E710B50288C6
:10725000102A1BD0112A20D0262A1DD1007A0C46D4
:10726000012801D0022817D1A0780521401CB0FBCD
:10727000F1F201FB1201204600F01EF800280BD0AD
:10728000A16B002908D0BDE810400847C27B012A45
:1072900002D18088A1F8480210BD0C46002184F874
:1072A00052128088B4F848128842F5D1207900281B
:1072B000F2D10121DFE770472DE9F05F0446007845
:1072C0000F4698B1A7700025C4F84A52A4F84E5250
:1072D00084F85052A079012608B1012F09D0E07935
:1072E00080B1012F05D0022F03D00BE00820BDE8AC
:1072F000F09F616B21B184F851620820884701E05A
:1073000084F8515204F24B2100200A5C0AB1304645
:1073100003E0401C0628F8D300204FF002084FF08D
:10732000030B012F06D0022F0CD0032F0FD0042FF8
:1073300015D110E0A17929B194F8241011B908B140
:1073400030460DE0E17911B108B1404608E0207AFD
:1073500008B1584604E0607A08B1042000E02846ED
:10736000A070616B41B1032801D0042804D1607979
:1073700010B194F85202A0B184F8535204F13C00C9
:1073800018210746FFF729F804F12C0084F83C6027
:10739000814603F021FA58B194F82C0084F851008A
:1073A00008E084F8545284F8536207208847E5E7E0
:1073B00084F8516094F8240050B1484603F00CFA68
:1073C00020B194F8280084F8520001E084F852605B
:1073D00084F85050A27804F24A2104F50D794FF058
:1073E000060A052A62D2DFE802F07A030F22410082
:1073F00084F83160C4F84452C4E9101584F83C8024
:107400008020A4F8480053E084F8318094F82420C8
:10741000384612B10722027001E080F800B0228ADB
:107420008281C4F844524160E168B96040E060691B
:10743000B860208BB88194F824003D4610B184F8E0
:107440003CA001E084F83C60204603F061FD50B1AF
:1074500085F814800421204600F0DDFF30BB0521B3
:1074600084F8311020E084F831B01DE0E069B860A4
:10747000208CB88194F824003D4610B184F83CA0DB
:1074800001E084F83C60204603F042FD48B185F8F5
:1074900014800421204600F0BEFF38B984F831A0E2
:1074A00002E0042084F83100C4F84492A07878B156
:1074B0003A4604F15400D4F8441272DF00287FF4F5
:1074C00016AF94F8301094F8540073DF0028F6D10A
:1074D000616B11B194F831008847002007E784F808
:1074E0003150F5E770B5040012D001461C22144853
:1074F000FEF75AFF1248134D0560206850B17ADF3D
:10750000002806D12068016829604068686005E0AD
:107510000E2070BD0B487BDF0028FAD108484FF6DB
:10752000FF711438084A20F8041B054934390160FA
:107530000021FFF7E7FB0028EBD0032070BD00001F
:10754000603800200C2B0020A9AE020010B50446C4
:1075500000F006F808B1204610BD142010BD000050
:10756000142801D3002070470146014801F02ABBCE
:10757000803800207CB5054608880C4609309042CA
:1075800001D90C207CBD68466DDF0028FAD1218826
:107590000820685420881B21401C80B22080295478
:1075A0002088401C80B220802844DDF80110016052
:1075B000BDF8051081802088801D80B220809DF854
:1075C0000010490800D0012129542088401C208047
:1075D00000207CBDF8B52C4C01880026E7880546C4
:1075E00021293ED015DC2948294A1029A0EB0200A8
:1075F0004FEAD0004FF0030202EB004013D01129F4
:1076000027D013292CD100231A46852138467FDF45
:1076100019E03B2934D052292CD0562920D180881A
:10762000132176DF0FE01BA102F0AAF801202071E0
:10763000072000F01BFB08B1FFF73AFBA988E180A7
:10764000174801F025FC00280AD0BDE8F840FFF7F4
:107650002FBB14A102F094F826714FF6FF70E08062
:10766000F8BD0096808869468FDF0028F8D0FFF7C4
:107670001FFBF8BD00231A4619463846B1DFE2E782
:107680008088132176DFDEE7A02A002080BB02007D
:1076900030BB0200436F6E6E65637465640000006A
:1076A000E82B0020446973636F6E6E6563746564D4
:1076B0000000000010B51A4C0188606810290ED037
:1076C00011292BD1401E606028D1FFF793FA0028C2
:1076D00024D02168002921D0BDE810400847D0B946
:1076E00000210122084600F09FFA08B107280FD1B7
:1076F00007220221012000F097FA08B1072807D1DC
:1077000004220221002000F08FFA20B1072802D0C5
:10771000216801B188476068401C606010BD0000AE
:10772000042B00202DE9F04701883B4E40F2F3196D
:107730004FF6FF7510291BD011293ED0122954D0C5
:10774000502946D1C188F289841D914241D1618975
:1077500002293ED18688304600F0B8FE050038D0B8
:1077600004F10C0000F0B5F9A8B3294630464EE00C
:10777000C17B8788044601292BD1A846284600F002
:10778000A5FE050017D02F8000202872234843460D
:107790004A460168C5F80A104068C5F80E0004F1B1
:1077A000100105F10A0000F008FF6872F089002856
:1077B0000FD129462AE0042013E0808800F086FEDD
:1077C000040006D06068FFF71FFB08B103F006F95C
:1077D0002580BDE8F087FFE76868FFF715FB002804
:1077E000F7D0BDE8F04703F0F9B887880646384679
:1077F00000F06CFE0400ECD02B464A4606F108016E
:1078000004F10A0000F0D9FE607221463846BDE856
:10781000F04700F02BBD0000603800200C2B00204A
:107820002DE9F04F0746858802883D48012197B031
:107830008346102A09D0112A49D01A2A6CD1387AE5
:10784000B1EB101F45D2012244E0354C083CA06842
:10785000C0430B9061680BA801F0D5F90B990CA8F7
:1078600000F09EFC2C220CA96846FEF79DFD002628
:10787000E946A04610E000BF09EB46005FF00004B7
:10788000B0F804A008EB84005146001D01F08FF908
:10789000641C1D2CF6D3761C0098B042ECD8142D35
:1078A00005D317B00420BDE8F04FFFF701BA294611
:1078B000584601F092F9294608F1040001F08DF9CB
:1078C000F87B012828D016482946001D15E02946D6
:1078D0001AE000220221B1EB101F01D2012600E0C4
:1078E00000260F49083901F11000041D294682B114
:1078F00001F073F936B12946204617B0BDE8F04FC4
:1079000001F06BB92946204617B0BDE8F04F01F0F1
:107910004EB901F04CF9F5E717B0BDE8F08F000063
:1079200084380020F0B585B016460F4604001D4689
:1079300014D004AA19466069FFF7DEFA00280BD1BB
:10794000A5F57F40FF380BD0049848B1007848B1C6
:107950003088F42808D9072005B0F0BD0E20FBE7D9
:107960000520F9E70820F7E7002000900190029039
:107970000390A088ADF8000001208DF80200CDE949
:10798000026769462846AEDFE6E7000070B5334D72
:1079900004008EB02DCD08AE86E82D005BD0E9B393
:1079A0000868A061214608A862DF002851D120782C
:1079B00001258DF83200ADF83050A21C0CA92846E4
:1079C000A8DF002845D120216846FEF706FD0220E9
:1079D000ADF8000020788DF802008DF80C509DF86D
:1079E0000D00F426ADF8046040F00C008DF8115045
:1079F000ADF806508DF80D008DF81250608804F136
:107A00000C02694600F08CFA002822D12021684639
:107A1000FEF7E3FC0320ADF8000000E01BE0207857
:107A20008DF802008DF80C509DF80D008DF8115066
:107A3000ADF8046040F010008DF81250ADF806501B
:107A40008DF80D008DF813506088221D694600F0F6
:107A500067FA0EB070BD0E20FBE70000A4B0020074
:107A600030B587B00446002925D0002C23D0084625
:107A70002188102921D0502925D057291BD105460E
:107A8000A18840696A46FFF737FA002813D10098A9
:107A9000007800280FD0182101A8FEF79EFC0120D5
:107AA0008DF804000295A088ADF80C0000980490B1
:107AB000A96901A8884707B030BD07B02146BDE8D5
:107AC000304002F0CBBC07B02146BDE8304002F0A8
:107AD000A5BD007800F0010070470000094908B515
:107AE000085C0090684601F0F5FBD0F80425009B87
:107AF0000121994021EA0203C0F808351140C0F87D
:107B00000C1508BD56B002000249085C012101F0C5
:107B10001EBC000056B002000249085C002101F0C2
:107B200016BC000056B00200084908B5085C009079
:107B3000684601F0CFFBD0F804050099C84010F06A
:107B4000010000D0012080F0010008BD56B0020005
:107B500010B500242046FFF7D7FF641C042CF9D38E
:107B600010BD10B500242046FFF7D6FF641C042C7E
:107B7000F9D310BD10B50246064B4FF0FF3000217F
:107B80005C5C944201D1084610BD491C0429F7D31E
:107B900010BD00005AB002002DE9F0470D468146A5
:107BA000FFF7E8FF0446042836D2DFF874801B484C
:107BB0001C4EA8F10C0725B3012D0ED0022D2BD1A0
:107BC00004EB440030444578002D25D0B9680029E5
:107BD00022D02846BDE8F047084704EB4401755C15
:107BE0000E44717849B10E4A4FF40041093A806859
:107BF000FFF7C6F808B987F80390B17808F80410C1
:107C0000E2E78068FFF700F904EB4401314418F81B
:107C100004008D78A842D7D0BDE8F08760B002009C
:107C2000002B00200038002070B50023042810D25B
:107C30000D4D00EB4004012A02D101290CD0002295
:107C4000094E00EB4000304461B1012906D0022901
:107C500006D00723184670BD0E30C2B22A55F9E788
:107C60004270F7E78270F5E700380020044A0146C9
:107C700000201279D20702D0084600F003B87047FE
:107C8000F42A00202DE9F05F6E4C0546002660784E
:107C9000B34618B184F801B000F0B2FC6A4F4FF45B
:107CA0007A694FF4C87A4FF00108182D69D2DFE8DD
:107CB00005F00C1313384754696E727B727BC584D0
:107CC00084848484B3B6B9BCC5C500F099FC386817
:107CD000FFF79AF806465CE00020FFF725FF002832
:107CE0004FF0000008D0FFF70FFF022D02D14FF434
:107CF000E16008E0484606E0FFF70EFF022D01D1E3
:107D0000C82000E05046410CC0034FF4FA728018BE
:107D100041F10001257052000023FEF701FB0146EE
:107D20002AE00020FFF700FF00284FF0000004D0F9
:107D3000FFF7EAFE4FF44870E5E7FFF7EDFEDFE7F7
:107D40000020FFF7F1FE00284FF0000002D0FFF7FF
:107D5000DBFECFE7FFF7E0FED4E70020FFF7E4FE0D
:107D600000284FF0000002D0FFF7CEFE01E0FFF741
:107D7000D3FE257041F69A1100223868FFF700F80B
:107D8000064646E00020FFF7A9FE257008E0002027
:107D900051E025703DE084F801800120FFF79EFE50
:107DA000002240F6CD41E8E784F801800120FFF78A
:107DB00095FE00224FF48041DFE77868FFF724F852
:107DC0000646D5F1110000D02EB10220FFF79CFE2F
:107DD00084F802B01DE0012816D980B2C8214843BA
:107DE000C117C90341EA5041C0034FF4FA72801829
:107DF00041F1000152000023FEF792FA01460022F1
:107E00007868FEF7BDFF06460220FFF785FE84F87E
:107E100002803046BDE8F09F00F0F2FBB9E700F0C9
:107E2000EFFBB4E700F0ECFB04E000F0E9FB00201E
:107E3000FFF772FE0120FFF76FFEAAE7FFF791FE42
:107E4000A7E70000F42A002060B002002DE9F84303
:107E50000546861C00208DF8000090460F464FF026
:107E600001096846FFF70AF81B4C20683860D4E91E
:107E70000001401AA16804F21C47081A0EE0012113
:107E8000384600F0BAFE00F05BFC0146384600F0D0
:107E9000B4FED4E90001401AA168081A401C8642C9
:107EA000EDD8B8F1000F03D0052065F3891002E08A
:107EB000062065F39F50A2682168114004EB810100
:107EC000C8602068304420609DF80000FEF7FAFF8B
:107ED0004846BDE8F8830000B83C002030B4826812
:107EE0000468531C8360A154D0E901128A4202D372
:107EF00030BC01F0B6B830BC70470000034803C87E
:107F0000814201D10120704700207047B83C002019
:107F10000249084490F930007047000008390020F9
:107F20002DE9F0438146887891B090460C4600B91F
:107F300001208DF83E002088ADF83C00002500951A
:107F4000607C694602F0BEFD6E46A07C711C02F0AA
:107F5000B9FDE07B00289DF8020002D040F0080047
:107F600001E020F008008DF80200217C11B140F002
:107F7000100001E020F010008DF80200217B11B10B
:107F800040F0010001E020F001008DF80200217DA9
:107F900009B1022100E0012161F342008DF80200E5
:107FA0001C2102A8FEF719FA607BC10601D48006E5
:107FB00017D50E950EAFE07C791C02F083FD9DF87D
:107FC0003800079720F00F00401C20F0F000103020
:107FD0008DF838009DF83A0020F00600801C8DF8DE
:107FE0003A00607B8DF80800A07B8DF80900142111
:107FF00009A8FEF7F2F90FA8CDE90906A088ADF8A7
:108000003000A06820B1E088ADF82C00A0680D9089
:10801000A06998B301950088ADF81000A06901AD82
:1080200001A94088ADF81200A06940680695039048
:10803000A069007B02F046FDA069691C407B02F04C
:1080400041FDA069807A00289DF8060002D040F02A
:10805000080001E020F008008DF80600A169C97A47
:1080600011B140F0100001E020F010008DF8060082
:10807000A169097A19B140F0010002E00DE020F099
:1080800001008DF80600A169897B09B1022100E099
:10809000012161F342008DF80600E06900B105900E
:1080A000434609AA02A94846AADF11B0BDE8F083F9
:1080B00070B5084C050009D010342168002907D09C
:1080C00008682060496828468847F6E70834F4E7DE
:1080D00070BD0000F4380020054A012120B10128BC
:1080E00005D19170FFF7E4BF51700020FAE77047A7
:1080F000F43800202DE9F05F26484168F1B3DFF83D
:1081000098B00E688146DBF8004087688078E11BF4
:1081100021F07F45ED1CB0B9DFF880804FF480304E
:10812000C8F84403C8F804031120FEF799FA112097
:10813000FEF7A1FA4FF0010AC8F800A02F2001F0C5
:108140006BFF89F802A0B54200D23546124BE81900
:108150003C3320F07F401860DBF800105A46091BC2
:1081600021F07F41001B20F07F40C91C81420FD9C4
:10817000106818602F2001F04FFF00E004E0BDE818
:10818000F05F1120FEF782BABDE8F05F02F0B2BBEB
:10819000BDE8F09F382B002004150140001001407D
:1081A00073B58CB00646002000900D9880B1002475
:1081B0006D4621460DA800F005FD30B1009805EB95
:1081C000400084800098401C0090641C142CF0D364
:1081D0002C2269463046FEF7E7F80EB070BD2DE957
:1081E000F04117880646B81D14460D46984202D93C
:1081F0000C20BDE8F0813188072206290AD34FF40C
:10820000486C4FF6FF73614501D9994202D17088DD
:10821000062801D21046ECE7604501D99842F9D111
:10822000994203D0984201D08142F3D80520E85505
:1082300020881221401C80B2208029542088401CB4
:1082400080B220804119308802F0CEFD2188084498
:1082500080B220804119708802F0C6FD2188084450
:1082600020800020C5E7FEF723BD000038B54A7A1C
:108270000F4B62B100220A725969002906D001220F
:108280008DF80020ADF802006846884738BD0A7AAC
:1082900062B19B684C68024619462046FEF770FDA5
:1082A0000028F3D0BDE8384002F098BB5B68F1E7E6
:1082B0006038002030B500230CE000BF31F81340D7
:1082C00000EB4305240A00F8134011F813405B1C2F
:1082D0006C70DBB29342F1D330BD000070B588B052
:1082E0000646002005900690ADF81410ADF8161063
:1082F0000190029001AA05A9304690DF050021D027
:1083000001F034FE0346114811493246401AC108B3
:10831000012000EB014004460E4901F03CFABDF893
:10832000042012B9BDF8060028B1BDF80630204679
:1083300009A101F030FABDF808201AB1204616490B
:1083400001F022FA08B0284670BD000030BB0200E0
:1083500030BB0200B0B302005468652072657175CD
:1083600065737465642054582F5258207061636B94
:108370006574206C656E67746820697320746F6F14
:10838000206C6F6E672062792025752F2575206F10
:1083900063746574732E0000FCB3020010B50021F5
:1083A000024800F03BFC80F3100010BDD4400020D8
:1083B0000E4910B50A784C780023A24212D0521C04
:1083C000D2B20A70022A00D10B70084A0B780C3224
:1083D00052F8232002608868104420F07F408860B3
:1083E000012010BD0360002010BD0000382B0020CC
:1083F000826883881A4003689A5C0A708168491C05
:1084000081607047C26883881A4003689954C168C4
:10841000491CC160704770B50D460446B0F838126B
:10842000D0F834020122FEF75CFE00B1057004F1C1
:108430003C0204F50D7104F1540072DF70BD0000C0
:108440000C484A88C3889A4213D10A88A2F520634F
:10845000773B0ED18988C91E8AB202810648074936
:108460001346401AC008032101EB004004A101F0AB
:1084700092B97047A02A002080BB020030BB0200E6
:1084800044617461206C656E20697320736574208B
:10849000746F2030782558282564290010B50949C3
:1084A000094800F03CFC08B1FEF702FCF721064841
:1084B00000F029FC002803D0BDE81040FEF7F8BB0F
:1084C00010BD000041840200D42B00200146034867
:1084D00002888A4200D00020704700004C380020FB
:1084E0002DE9FC5F0E008346DDE90C47C6F1000074
:1084F00098469246814600D40846012503E000BF15
:1085000090FBFAF06D1C5045FADAA84500D94546B3
:1085100024B1002E01DB780700D5641EB80702D510
:10852000B8F1000F0AD0F80708D13CB1A54205D236
:1085300020215846641EFFF7D1FCF6E7002E02DA30
:108540004E462D2102E0780703D52B215846FFF730
:10855000C5FC07F0030002280BD1B8F1000F08D1C9
:108560003CB1A54205D230215846641EFFF7B6FC47
:10857000F6E7CDE90047434652463146584602F0F9
:1085800039FCBDE8FC9F024600201268530713D552
:1085900002F00300012802D002280CD105E0C2F34A
:1085A00083100B68801C184404E00223086803EB66
:1085B00092521044086001207047F0B58488A518D5
:1085C000944200D82246A41AC288D6189A4200D8EB
:1085D0001346D21A4B880788BB420CD3408883428B
:1085E00009D88888A04206D3A84204D8C8889042F7
:1085F00001D3B04201D90020F0BD0120F0BD000040
:108600000A4810B5807860B1002401E0022C06D041
:108610002046FFF779FA641C042CF7D310BD03241D
:10862000F6E7BDE81040FFF793BA0000F42A0020F7
:10863000F721018017214180002101714171FB2147
:1086400081711B21C17170472DE9F047394E002718
:1086500080463D46DFF8E090D6F804A057E003D00E
:108660000446D0F81C8035E099F8002002EB420166
:10867000521CD2B289F8002009EBC10199F80230EE
:10868000091D9A4201D189F8005048680A780446C9
:10869000012A12D0022A02D0032A3BD108E002F0BC
:1086A00005FB00B10127257434E00574C06900E0C2
:1086B00070680028F9D170602CE0207C50BB88687D
:1086C0006060C868A0600869E0604869A061F078EF
:1086D00000B165606268B168184B501A20F07F40A5
:1086E000984202D2A168084406E0881AA16820F0E6
:1086F0007F40814202D9081A206000E02560656051
:108700000120A56020742046E56102F0B1FAB8F1BD
:108710000000A4D199F8001099F801008142A3D17A
:1087200017B97168514502D00120BDE8F0870020DB
:10873000FBE70000382B0020DC390020FFFF7F0022
:108740002DE9FF410026234800F054FA2148001F7C
:10875000074600F04FFA204C60680090A56800E0E2
:1087600000986946284004EB80000C30FFF70BFFAF
:108770000028F5D101AA009901EA050304EB83035F
:10878000491CDB6842F82030401C00910228F2D3DB
:10879000019800F0030001280BD0022810D10198A5
:1087A000032101EB90500099BDF80A6001EB9000A5
:1087B00005E00198BDF80A60C0F3831008440090FA
:1087C000384600F014FA08B10098606004B03046F2
:1087D000BDE8F081D0400020B83C0020ACB0774923
:1087E000774801F071FC01F0F9FC02F06BF84FF4EE
:1087F0000041002001F02EF808B1FEF759FA00F010
:1088000099FE642000F0CCFBFEF790FA08B1FEF769
:108810004FFA01F047F908B1FEF74AFA642000F078
:10882000BFFB01F0EFFA08B1FEF742FA00246946F7
:108830000120009401F086F908B1FEF739FA684684
:1088400001F018FA08B1FEF733FA9DF808005DA1AF
:1088500020F00F00401C20F0F00010308DF80800D0
:10886000072202A87CDF08B1FEF722FA009410204C
:10887000ADF800003C200194ADF80200ADF80440D2
:108880004FF4C870ADF8060068467ADF08B1FEF70D
:108890000FFAFFF703FE4D48019001A94C4800F084
:1088A00002FB08B1FEF704FA4A48009044486946C2
:1088B0001C38FFF76BF808B1FEF7FAF9AC216846EF
:1088C000FDF78BFD02208DF800008DF80240052099
:1088D0008DF803000120ADF84C0039498DF87C007B
:1088E0004FF4967036392290149144F250602390E0
:1088F00039482990364869460C30FEF721FC08B10A
:10890000FEF7D6F9324801210C30FEF716FC1C2187
:108910006846FDF762FD4FF42030CDE900404FF48A
:10892000702002902D48059003252D488DF80C509D
:108930000690ADF80E408DF810406846FEF7D2FD67
:1089400008B1FEF7B5F9642000F02AFB20480321A6
:108950000C30FEF7B1FC08B1FEF7AAF92B2000900D
:10896000684600F0A9FC009900EB8100C0F80057B0
:1089700000212B2000F0D8FC1A481B49401AC008DF
:1089800005EB004019A100F0FBFE0D4D403D2C61B0
:10899000FEF7B2F9E86100F0DBFD01F097F8FEF7B1
:1089A000CFFA01F0BDFEFEF7A7F92862E969401A87
:1089B000286101212B2000F0B7FCE9E7A1A6020005
:1089C000E02A002050444D5F424C4500119B0200BC
:1089D000E82B002089A3020021A4020041A4020088
:1089E0006782020080BB020030BB020048656C6CED
:1089F0006F200A0070B5144682880E46054620880E
:108A0000111D0144921C994201D8FE2A01D90C2063
:108A100070BD521C32542088FF21401C80B220803F
:108A200031542088401C80B220808119288802F0AF
:108A3000DBF92188084480B22080AA8842B1A96865
:108A400041B13044FDF7B0FC2088A988084420805B
:108A5000002070BD072070BD2DE9F047C5881E1DA0
:108A6000B6FBF5F78946B6FBF5F1044605FB176C36
:108A7000407916686843DDF820A0F718001F874288
:108A800000D9C61A166001E02468491E0029FBD1EE
:108A9000A5EB0C078846B74216D818E004EB0C008B
:108AA000001D09EB0803BAF1000F3A4602D0014657
:108AB000184600E01946FDF777FC2468F61B4FF0D6
:108AC000000CB844B54201D9374600E02F46002ECD
:108AD000E4D1BDE8F087000030B5024651B100F0A6
:108AE000D7FE0021074C08E034F821301568AB426E
:108AF00002D11160002030BD491C8142F4D3052011
:108B000030BD000000000000F8B50F4601781446A3
:108B10000546012901D1687830B12088821C9A422B
:108B200032D8012902D006E00720F8BD6978014457
:108B3000891C994228D8181A801E86B2ADF80060A8
:108B40002188B81C084469467DDF0028EDD12978CA
:108B5000022904D06878BDF80020904205D3BDF802
:108B60000000B04201D809200AE00820012905D1FF
:108B70006978B14202D8ADF8001001E0ADF80060AC
:108B8000BDF80010FE2901D90C20F8BD2288491C2F
:108B9000B9542188491C89B2218078542088401C0E
:108BA0002080BDF80010084420800020F8BD01F0AE
:108BB0001F0301229A40D243490900EB810011466C
:108BC00000F021B84A0950F8220001F01F020121EB
:108BD0009140084000D00120704701F01F0301229E
:108BE0009A40490900EB8100114600F01CB80021B1
:108BF00000F00FB8012100F016B808B56A46FDF77D
:108C00003EFB009808BD08B56A46FDF71EFB0098BC
:108C100008BD08B56A46FDF718FB08BD08B56A46E9
:108C2000FDF7FAFA08BD08B56A46FDF701FB0098A2
:108C300008BD08B56A46FDF72FFB009808BD38B59A
:108C4000044600258DF800506846FEF717F92168A4
:108C50006268086890420ED9401E08600178238A35
:108C6000E26801FB0325227A2168101AC0B20A7952
:108C7000824200D208719DF80000FEF723F92846D1
:108C800038BD38B5054600208DF800000C46684612
:108C9000FEF7F4F8E868298A201AB0FBF1F12A6897
:108CA0001068431C136001709DF80000FEF70AF97C
:108CB00038BD10B530B1017A42680368891AC9B26B
:108CC0001A6006E00E2010BD03681A68541C1C6070
:108CD0001170491EC9B2F7D200680021017108461F
:108CE00010BDC20800F007030120895C98400840CD
:108CF000704710B5C20800F00703885C01249C404F
:108D00002043885410BD28B1A1F11702E12A03D3F2
:108D1000072070470E20704701800020704710B573
:108D200060B10161F72120F8021B20F8021BFB2132
:108D300000F8021BFFF77CFC002010BD0E2010BDC8
:108D4000F0B5858893B00C46002D39D101880026F6
:108D50003F4F24293BD006DC102909D011290CD023
:108D6000232958D14FE03A290BD0552953D129E076
:108D70000146204601F0A8FB4DE0A01DFFF758FC7E
:108D800049E02246408934F8061F814200D808464F
:108D90006080172800D217206080106970B1607958
:108DA00060B1D7E90001CDE90301ADF80E5060884C
:108DB000ADF81000136903A9104698476671267133
:108DC00013B0F0BD0146204601F0D2FB23E0011DA7
:108DD0002C2206A8FDF7E8FABDF81800BDF81C2003
:108DE00004EBC0014A732269AAB1D7E90423CDE993
:108DF0000423ADF81200487B8DF814002269204648
:108E000004A9904707E0017A207B884200D20146FE
:108E10002846FFF763FAA07A0028D1D0E1882846D7
:108E2000A5DF012580B11128CAD001F09FF80246C4
:108E30000848094913B0401AC00805EB0040BDE8D6
:108E4000F04006A100F0A0BCA672E572B8E70000F1
:108E50008CB0020030BB020030BB020073645F6262
:108E60006C655F67617474635F65786368616E6782
:108E7000655F6D74755F72657175657374282920FF
:108E800072657475726E65642025732E0000000093
:108E900020B10278DE2A03D0082070470E207047E8
:108EA00041800020704760B159B10278DE2A0AD0B3
:108EB00009684160DE2101704FF6FF71418000209A
:108EC00070470E207047082070477FB5054600297F
:108ED0004DD0002D4BD008780C46DE2847D1A8880D
:108EE0006188884202D1204602F01EF828880128B5
:108EF00025D002283BD011283AD0512837D135F857
:108F0000040F6188884232D1A978A81C02292ED189
:108F1000017A042903D0062901D0052927D100218F
:108F2000009102228DF8002001914FF4C07202914D
:108F30000391ADF80420007A05280FD010E0297ABB
:108F40002046012913D1A988428891420FD10121DD
:108F5000017204B0BDE8704001F0E6BFADF8041046
:108F600028886946B0DF002801D0616888477FBD46
:108F7000A88861888842FAD14FF6FF7060807FBD73
:108F800000F180400068002800D00120704708B53B
:108F900000F18040002101600068009008BD0000E1
:108FA0002DE9F041040007D0044E4FF47A47751CB8
:108FB0003846A847641EFAD1BDE8F08150B00200DF
:108FC00070B50B4C207808B185250FE00020A0601B
:108FD00060602061E060074801F000F8054600F09D
:108FE0005DFF08B900F0E2FF01202070284670BD47
:108FF000F4380020D980020038B500258DF80050E3
:109000006846FDF73BFF074CE068401EE060E06803
:1090100010B900F0F3FFA5709DF80000FDF752FFB6
:1090200038BD0000F438002030B40378054CE35C10
:109030001BB130BC001D01F051B930BC0C3001F047
:10904000EBB80000142B00200FB408B503990029D9
:1090500004D004AA00926A4600F00FF801B05DF84F
:1090600014FB10B582680446002A05D0D4E9040335
:10907000216898470020A06010BD2DE9FC4791466B
:109080000C00804676D014F8011B39B125290ED08A
:109090004046FEF723FF20780028F4D198F80C0012
:1090A000002867D04046BDE8FC47FFF7DABF002044
:1090B000012221782B291BD02D2902D0302908D15B
:1090C00002E040F0010001E040F00200641C002AD0
:1090D000EFD100252A290ED02178A1F130020A2AE9
:1090E00011D205EB850201EB4205641C303DF1E72E
:1090F00040F00400EAE7D9F800100B1DC9F8003071
:109100000968641C0D44217800232E290BD114F822
:10911000011FA1F130020A2A05D203EB830201EB01
:109120004203303BF3E76C290DD068290BD0692945
:1091300021D00BDC252918D0582931D063290ED035
:10914000642915D117E014F8011FECE7702969D0E4
:10915000732932D075291BD0782909D120E0D9F89C
:109160000000011DC9F8001001784046FEF7B6FE68
:10917000641C90E76CE0D9F800100A1DC9F80020C3
:109180000968CDE900500A224046FFF7A9F9EFE748
:10919000D9F800100A1DC9F8002009680A2206E063
:1091A000D9F800100A1DC9F8002009681022CDE97D
:1091B0000050404601F01EFEDAE7D9F80010002703
:1091C0000A1DC9F800200E68C00705D112E040460C
:1091D000761C7F1CFEF782FE31780029F7D104E06F
:1091E000202140466D1EFEF779FEBD42C0D9002DFC
:1091F000F6D1BDE74EB13046FDF7FAF8074604E078
:10920000202140466D1EFEF769FEBD4206D9002DA5
:10921000F6D103E04046761CFEF760FE3178002967
:10922000F8D1A5E7D9F80000011DC9F800100568BC
:1092300030214046FEF752FE78214046FEF74EFEB2
:1092400008200021CDE90001034610222946B0E79D
:10925000BDE8FC872DE9FF411C46DDE90A7815468B
:109260000E46684600F052F846EA450141EA84019C
:1092700041EA072242EA0841009A00EB8200C0F866
:109280000017BDE8FF8113B50C46684600F030F8C2
:10929000009900EB8101D1F8002722F44032C1F897
:1092A0000027009900EB8100D0F8001741EA044143
:1092B000C0F800171CBD00000168202902D24FF041
:1092C000A040704701F01F01016001487047000095
:1092D000000300500168202902D24FF0A0407047DF
:1092E00001F01F01016001487047000000030050B9
:1092F0000168202902D24FF0A040704701F01F0101
:1093000001600148704700000003005001682029F7
:1093100002D24FF0A040704701F01F0101600148E8
:10932000704700000003005038B5012400906846E3
:1093300031B1FFF7C1FF00998C40C0F8084538BD36
:10934000FFF7BAFF00998C40C0F80C4538BD38B51E
:1093500001240090684631B1FFF7BCFF00998C40B2
:10936000C0F8084538BDFFF7B5FF00998C40C0F83C
:109370000C4538BD1CB5094C0144D4E90034CDE995
:1093800000346C4606E000BF54F82030D3F81035A6
:10939000401C08C28142F7D81CBD0000B4B00200D6
:1093A000034908B50844002101600068009008BD29
:1093B0000060004002494058012800D0002070475A
:1093C0000060004030B5154A01460020D2F8104434
:1093D00023460AE0DB681D79854205D1401C0A2836
:1093E000F6DB4FF0FF3030BD1B68002BF2D1431C81
:1093F000F9D0CB681871D2F8103443B1DB68CC686F
:109400001B682360D2F81024D268116030BDC2F806
:109410001014C96800220A6030BD0000B83C00206A
:109420007047FDF703BA704708B5034A009240231E
:10943000024A00F005F808BDEDA90200203B00201B
:10944000F0B595B01C4615460E4608461A9F00F02A
:10945000F1FA182109A8FCF7C0FF0E97CDE90954CD
:109460000023082203A9304600F0F9FA0598069077
:10947000BDF81000ADF81C00BDF81200ADF81E00DC
:1094800000208DF821000399082501F00300012830
:1094900002D0022816D02FE0C1F3C200C1F3831717
:1094A0008C0A8DF82000BA002B460FA9304600F038
:1094B000D6FA09A8009006AB3A460FA9204600F05C
:1094C00015FA19E0C1F3C2008C0D8DF82000082CAC
:1094D00001D2274600E008272B463A460FA930461E
:1094E00000F0BDFA3D44E41B09AB06AA39460FA8BB
:1094F00000F05AF9002CEAD1304600F0A1FA15B07C
:10950000F0BD00000A4A012902EBC00007D0022981
:1095100007D0032907D0042907D000207047022074
:109520007047042070470079704740797047000009
:1095300030BB020010B5FFF774FF04210348FFF7AA
:1095400041FF02490120C968487110BD20BB0200DB
:109550002DE9F04F8DB0FEF7D1FC18B100200DB011
:10956000BDE8F08F7D4C4FF0000BC4F818B4BFF38A
:109570004F8F60680290A568D846284004EB8000B1
:109580000CE000BFD4F8180470B921680298814239
:1095900001D86160E2E7284004EB80000C3002A9AA
:1095A000FEF7F1FF0028EDD1002009AA029901EA97
:1095B000050304EB8303491CDB6842F82030401CA0
:1095C00002910228F2D3099800F00301022902D087
:1095D00001294DD0A8E0810D50228946B2EB905F61
:1095E00000D850210F4667F39F50099008315C481E
:1095F00000F0D7F9060077D000F01CFA43460822A5
:1096000009A9304600F033FA029908F1080A294006
:10961000681A8000001D874223D9504D0C3530B1A7
:10962000C2B204EB8101381A90460C3104E029469D
:10963000FAB2002590462846C7B25346304600F09D
:1096400016FA0AEB08032DB13A4629464FEA0600FE
:1096500000F00DFA029909F1030001EB900002906D
:1096600039E004EB810153463A4630460C31EFE7CE
:10967000C0F38311062900D3062161F389100990F4
:10968000C0F38310801C8100354800F08AF9060081
:109690004AD000F0CFF94346082209A9304600F02D
:1096A000E6F908F1080800270FE00298434600EAAF
:1096B0000501401C04EB81010290042230460C316C
:1096C00000F0D5F908F104087F1C0998C0F3831055
:1096D000B842EAD846B1D4F81054D4F8180478B196
:1096E000304600F0ADF934E01EE0E868407901282A
:1096F00004D12A682846314612689047E868056810
:10970000002DF2D1304600F09BF98DF800B068468C
:10971000FDF7B4FBD4F8180408B9029860609DF80E
:109720000000FDF7CFFB14E0D4F8104405E02168F9
:10973000204689688847E0680468002CF7D109480A
:109740000949401AC008022101EB004007A100F0BE
:1097500017F8FEF7D3FB80F0010000E7B83C0020CB
:10976000A0BB020080BB020030BB02004261636B01
:10977000656E647320666C75736865640000000034
:1097800000231A4601F0EEB908B5012300926A469B
:1097900001F0E8F908BD1CB5CDE9002302236A46B3
:1097A00001F0E0F91CBD00002DE9F0470E468046AF
:1097B0001C46924608293ED894F80C90002020734D
:1097C0001946104601F032F80025B54206D218F8C5
:1097D00005201AA12046FFF737FC03E019A1204617
:1097E000FFF732FC6D1C082DEFD317A12046FFF7C1
:1097F0002BFC0025B54210D218F80570FCF7D0FDFF
:109800000068C05D10F03E0F01D03A4600E02E2205
:109810000EA12046FFF718FC03E00DA12046FFF73C
:1098200013FC6D1C082DE5D301222146504600F0A3
:10983000DFFF84F80C90BDE8F0870000202530326F
:1098400078000000202020007C000000256300003C
:10985000200000000B4810B5FF218160002101604D
:109860004160C0F81814C0F8141480F82014064899
:1098700000F0E4F8002803D1044800F04BF9002080
:1098800010BD0000B83C0020A0BB020078B202006E
:1098900002480349401AC00870470000A0BB0200FC
:1098A00030BB020013B56846FFF716F908B1002077
:1098B0001CBD0248009950F831001CBD30BB0200AD
:1098C00070B509480125D0F8104480F8205407E00D
:1098D000E06845712168204649688847E068046867
:1098E000002CF5D170BD0000B83C00202DE9FF47E9
:1098F00081460C9D00200C462F7B28739846164607
:109900002946184600F092FF072E42D2DFE806F003
:1099100004090F161F2A360049462846FFF794FB14
:1099200037E0494628462268FFF78EFB31E0D4E94C
:10993000002349462846FFF787FB2AE0A0680090ED
:10994000D4E9002349462846FFF77EFB21E0D4E90D
:109950000201CDE90001D4E9002349462846FFF77A
:1099600073FB16E004F1080007C88DE80700D4E98E
:10997000002349462846FFF767FB0AE004F1080088
:109980000FC88DE80F00D4E9002349462846FFF7A9
:109990005BFB00222946404600F02AFF2F73BDE8FA
:1099A000FF872DE9F041058A80462D1F4819C01C0C
:1099B000B0FBF5F0C6B24046FFF741F9041E19D0DE
:1099C0000020207101206071E58000272546761E69
:1099D000C4F800800BE04046FFF731F960B16179CF
:1099E000491C6171286005467F1CC0F80080B742A1
:1099F000F1D32046BDE8F081204600F002F80020B7
:109A0000F8E72DE9F041457901466B1E002201E09F
:109A10000968521C9A42FBD30F680146002605E0F4
:109A200038460C68FFF72DF92146761CAE42F7D375
:109A3000BDE8F0810121001DFFF7DFB8FFF739B95C
:109A400010B504460121001DFFF7F3F810F0FF0FD9
:109A500004D12046BDE81040FFF7D3BF10BD1CB5B0
:109A600001920122009201AAFEF7F6FF1CBD1CB56F
:109A700001920022009201AAFEF7EEFF1CBD000039
:109A800002494058002800D00120704700D0014012
:109A9000034908B50844002202600068009008BD30
:109AA00000D00140064910B500204870091D08602B
:109AB000BFF35F8F0349044800F014FA002010BD83
:109AC000682B002010B10200143B002008B50020D4
:109AD0008DF800006846FDF7D1F9F1EE100A20F08C
:109AE0009F00E1EE100ABFF35F8F08494020C1F8E4
:109AF00080029DF80000FDF7E5F900F0CFF908B10C
:109B000041DF08BD20BF40BF20BF08BD04E000E02A
:109B1000FDF7CEB882680021916082681161826889
:109B200051618268D16082685160806801607047CD
:109B300020B1034909680160002070470E2070477A
:109B4000FCB202002DE9FE4307460E460846FFF729
:109B5000EFFF00287CD100240094019406208DF8AA
:109B600000704FF00108ADF8040002948DF80280F7
:109B700069462020326869DF3649374A891AC908A0
:109B8000012202EB014530B100F0F0F9024628460F
:109B90003249FFF7F9FD00948DF801808DF80240FD
:109BA000019402948DF8034069464020326869DFD1
:109BB00030B100F0DBF9024628462949FFF7E4FD01
:109BC00000948DF80070F720ADF802000194029423
:109BD00069462320326869DF30B100F0C7F90246D8
:109BE00028462049FFF7D0FD0094019402948DF897
:109BF000008069460120326869DF30B100F0B6F9B3
:109C0000024628461849FFF7BFFD4FF4B0600090A8
:109C1000019402946946A120326869DF30B100F0F6
:109C2000A5F9024628461149FFF7AEFD00940194BC
:109C300002948DF800406946A020326869DF30B197
:109C400000F094F9024628460949FFF79DFD0020DF
:109C5000BDE8FE8390BB020030BB02009CB902004D
:109C6000E4B9020030BA0200FCB8020048B90200B0
:109C7000A8B802002DE9F0410546076860DF80467C
:109C800019491A482A68081AC608BA4219D902207E
:109C900000EB064416A12046FFF772FD20463A4627
:109CA0001FA12B68FFF777FD4FF08050D0F80C0113
:109CB0002968800200F10050421A204625A1FFF7D2
:109CC00063FDB8F100004FF001040AD000F04EF936
:109CD000024604EB06402AA1FFF756FD4046BDE8C8
:109CE000F0812F480470F9E790BB020030BB0200FE
:109CF000496E73756666696369656E742052414D7D
:109D000020616C6C6F636174656420666F7220748F
:109D1000686520536F66744465766963652E00003C
:109D20004368616E6765207468652052414D2073F9
:109D300074617274206C6F636174696F6E206672F7
:109D40006F6D203078257820746F20307825782E3C
:109D5000000000004D6178696D756D2052414D2005
:109D600073697A6520666F72206170706C696361D7
:109D700074696F6E20697320307825782E0000009A
:109D800073645F626C655F656E61626C6528292033
:109D900072657475726E65642025732E0000000074
:109DA000CF2B002030B51548ADF5017D0078002897
:109DB00021D04FF4FA7500BFADF8005280A9684673
:109DC00061DF38B1052816D00DF5017DBDE83040C2
:109DD000FCF76EBF6C460A497DA800F083F806E0E8
:109DE000D0E90021204690477DA800F092F87F98A6
:109DF0000028E1D0F4E70DF5017D30BDCF2B002028
:109E000000B302007CB5194C207808B108207CBD55
:109E10000120A070002000F0B3FD112819D000200F
:109E200000F0C6FD12480026006801908DF8006021
:109E30006846FDF723F80F4901A810DF05000AD096
:109E4000002020709DF80000FDF73CF82DB1284659
:109E50007CBD00207CBD0120F3E7A670667000F099
:109E600055FE012000F0A4FDF3E70000CC2B0020FC
:109E700094B202002D6C02000EB50749684600F04E
:109E800031F805E0D0E900108847684600F041F855
:109E900002980028F6D10EBDB0B202000148007849
:109EA00070470000CC2B00201FB568464BDF30B157
:109EB000052814D004B0BDE81040FCF7F9BE0849ED
:109EC00001A800F00FF806E0D0E9002100989047C3
:109ED00001A800F01EF803980028E6D0F4E71FBDA3
:109EE0001CB30200016009684160AFF3008010B547
:109EF000D0E900215368994201D1002104E0D1E961
:109F00000034A34202D01946816010BD083141607F
:109F1000F0E7816800290BD0026892680A448260E9
:109F200041684B689A4203D108314160FFF7DFBFB7
:109F3000704700000C4A10B502F594730EE0991AB0
:109F4000C91001EBD171491002EBC1010C688442C8
:109F500001D90B4602E005D201F108029A42EED384
:109F6000002010BD486810BD30B1020000B5FFF7F9
:109F7000E1FF002800D1014800BD00001CB1020033
:109F80004058002800D00120704708B500224250F8
:109F90004058009008BD4058002800D0012070476C
:109FA00008B5002242504058009008BD094800689A
:109FB000012110F0010F08D14FF0E020C02280F8FD
:109FC0000024C0F88012C0F8001103490120086085
:109FD0007047000000E100E0180500400649024615
:109FE00000200B790BB1852070470A6001220A71AD
:109FF00000224A7170470000282B002004490120EC
:10A00000086004480168C1F300410029FAD1704793
:10A010000C00004018040040002802D001498001D3
:10A0200008477047E1B002000121B1EB507F01D138
:10A0300001207047002070472DE9F0411F4A137C32
:10A040004BB1537C032B08D010B1B1F5004F06D3B0
:10A050000720BDE8F0810820FBE71120F9E7002682
:10A0600001254FF0E0246B07C4F88031937C25EA8A
:10A070000304537C022B00D1002402EB84035F68AD
:10A080000FB1112614E0586002EB440399810C4B88
:10A090001860181D0160107C022809D0022010747D
:10A0A0000748603805608015FFF7F2FC0548056039
:10A0B0001D20FCF722FD3046CBE70000C43900200C
:10A0C00060D5014000D001402DE9FC41334E0446EB
:10A0D000307C10B10820BDE8FC81207A502802D8DD
:10A0E000607A502801D90720F5E700257560B56032
:10A0F000B574F57431607574294960680860217819
:10A100006078022201F0010102EA40000143244884
:10A11000001D0160224A217A1432607A1160111DFB
:10A120000860A07801220095002311460195FFF7F1
:10A1300091F8A07800906846FFF7E8F8009A014689
:10A14000012707FA02F0C1F80C05E078002200951B
:10A150002B4611460195FFF77DF8114AA1783C3254
:10A16000E0781160111D08608815FFF791FC4FF42D
:10A170008470FFF78DFC4FF48270FFF789FC09496A
:10A180000320C1F80403A07A0749400181F80004C4
:10A190001D20FCF7B2FC377428469CE7C439002028
:10A1A00004D5014000D001401DE000E00A48417C98
:10A1B00031B1407C012801D0112070470020704748
:10A1C000022141740121017549074FF0E02200206E
:10A1D000C2F8001270470000C43900200B49487CC7
:10A1E00001280BD0487C20B1487C022801D01120E6
:10A1F0007047074A002010604874704701200874B7
:10A2000003224A740349086000207047C4390020C3
:10A2100000D5014004D001402DE9F0470546007902
:10A220000B4600EB400101EBC000234901EB800429
:10A23000284600F043F810B11120BDE8F0874FF038
:10A240000008C4F82080A360626184F828804FF47D
:10A250008E76474631462868FFF797FE28684FF00C
:10A260000109C0F808902146286800F0ADFD60683B
:10A2700000BBD5F800A00EE094F8280008B10F2725
:10A2800016E031465046FFF77BFE0028F4D0214609
:10A29000504600F099FD216A60698142F1D3314650
:10A2A0002868FFF76DFE0028F9D02868C0F80C90E8
:10A2B000C4F814803846C0E774390020007900EBF8
:10A2C000400101EBC000044901EB80004069002817
:10A2D00000D0012070470000743900202DE9F047BC
:10A2E00004460E460079204900EBC00001EB8005D2
:10A2F00017463046FFF798FE30B1204600F036F89A
:10A3000020B11120BDE8F0871020FBE76F61AE603F
:10A310004FF49076002731462068FFF741FE4FF456
:10A32000AC7841462068FFF73BFE2068AA6869695F
:10A33000C0F84425C0F8481520680121816068688C
:10A3400078B9B14649462068FFF725FE06464146E2
:10A350002068FFF720FE0643F4D000B10F2700204D
:10A3600068613846CEE70000A03900200079054931
:10A3700000EBC00001EB80004069002800D0012004
:10A3800070470000A03900202DE9F0410546007813
:10A39000002828D1154816490026401AC008012176
:10A3A00001EB004710E02869805DFCF73DFD0400EB
:10A3B00009D0112CF7D0384622460EA1FFF7E4F958
:10A3C0002046FCF775FC761CA88AB042EBD8A98A17
:10A3D0002869084410F8010C0D2804D10A20FCF764
:10A3E00023FD1128FAD0BDE8F081000080BB0200F7
:10A3F00030BB02004661696C656420726563656903
:10A4000076696E67204E5553206D6573736167657D
:10A410002E204572726F7220307825782E20000031
:10A4200010B500280AD0032808D10220FDF71EFC31
:10A43000002803D0BDE81040FCF73ABC10BD000076
:10A440000078002807D104483B21C08876DF002827
:10A4500001D0FCF72DBC7047A02A0020F0B58BB0CE
:10A46000002601960D4604468988406901AAFCF73A
:10A4700043FD0AA8CDE908600227ADF82070ADF8C9
:10A480002260218AA88808AAADDF002819D1A06916
:10A49000002816D00998FDF71CFB002811D0019E5A
:10A4A0000EB101203070182102A8FBF796FF8DF83D
:10A4B00008700394A888ADF810000596A16902A859
:10A4C00088470BB0F0BD000070B58D88027900EBB5
:10A4D000C5042273C97BA41D012902D0022904D11D
:10A4E00001E0008800E04088208021886088814267
:10A4F00011D92846A5DF0126B0B1112816D0FFF7E3
:10A5000035FD02460B480C49401AC00806EB0040D6
:10A510000AA1FFF739F9A179E079814208D92846E3
:10A52000BDE87040FDF7DABE6671F4E72671F2E728
:10A5300070BD000030BB020030BB020073645F627C
:10A540006C655F67617474635F65786368616E678B
:10A55000655F6D74755F7265717565737428292008
:10A5600072657475726E65642025732E000000009C
:10A570007CB506468D88C88806EBC504A41D17283F
:10A5800000D217202188814200D808466080002030
:10A59000207121882846B5DF60B1FFF7E7FC02464D
:10A5A0000F481049401AC008012101EB00400EA1DC
:10A5B000FFF7EAF86079002810D1306900280DD043
:10A5C0001549D1E90201CDE90001ADF802506088DA
:10A5D000ADF8040032696946304690477CBD000002
:10A5E00030BB020030BB020073645F626C655F6762
:10A5F000617474735F65786368616E67655F6D74BD
:10A60000755F7265706C7928292072657475726E39
:10A6100065642025732E00008CB00200F0B587B071
:10A620000C4605468E1D8988406906AAFCF764FC25
:10A6300018216846FBF7D1FE0195A088069AADF86F
:10A640000800039231882B89002704F112009942F7
:10A6500002D17389022B0DD0AA8991421ED1A9691A
:10A6600000291BD08DF8007004907089ADF814009B
:10A67000A96911E0002A11D0FDF72BFA20B1069943
:10A6800001200870022002E00698077003208DF870
:10A690000000A969002901D06846884707B0F0BDCD
:10A6A00070B5017A012932D0007801282FD11849DC
:10A6B000194C01234D78174A2078012D0CD108B18F
:10A6C000451E00E009250D70EDB2652615FB06F567
:10A6D00002EB450585F8C830652510FB05F002EB57
:10A6E0004000002590F8C82032B14D70BDE87040A0
:10A6F00064210A48FFF7A0BC4B706421FFF79CFC63
:10A700002078401CC0B220700A2800D3257070BD8C
:10A71000A02A0020DC2F0020F02A00204C2E002050
:10A72000F8B5264D2879012846D1254C6521207899
:10A7300010FB01F0234F07EB400191F8C8000128FE
:10A740003AD1C820ADF8000064221F48FDF7B2FDE1
:10A7500000262078652110FB01F007EB400080F80F
:10A76000C8601648EB886A4617492430FDF7DAF8C6
:10A77000082806D01328F4D0052802D008B1FCF729
:10A7800097FA2078401CC0B220700A2800D32670A7
:10A790006A69A02092FBF0F100FB112048B90B4838
:10A7A0000B49401AC008032101EB004009A1FEF744
:10A7B000EBFF6869401C6861F8BD0000A02A00201A
:10A7C000F12A0020DC2F0020142F002080BB020083
:10A7D00030BB0200202564000068012805D0022853
:10A7E00003D0042801D000207047012070470000EA
:10A7F00010B50C46017A052908D0407A38B10848CE
:10A8000008A102682046FEF71FFC00E01AB106A16D
:10A810002046FEF719FC2046BDE81040FEF721BC9B
:10A82000A82B0020257300000D0A000038B5C3884E
:10A830000D46044633B114A0009015A216A1284677
:10A84000FEF702FC217A05291CD0607A48B1A08865
:10A85000FEF758FE164951F8202016A12846FEF7AB
:10A86000F3FBA0880021FFF71DF803461049207A6A
:10A87000143951F8202001B02846BDE830400EA11F
:10A88000FEF7E2BB38BD00001B5B306D000000002E
:10A890001B5B313B33316D0025734C6F6773206454
:10A8A000726F70706564202825642925730D0A0075
:10A8B000A82B0020257300003C25733E2025733A09
:10A8C0002000000070B509490020094D087048704B
:10A8D00004466520604305EB4000CA21FBF77DFD7F
:10A8E000641CE4B20A2CF4D370BD0000F02A0020EE
:10A8F000DC2F002070B5012670044FF0E021002508
:10A90000C1F88001084C4010C4F84803C4F808039B
:10A9100066602F20FFF780FBA660044C2F20A56007
:10A92000FFF77AFBA57070BD00100140382B0020A6
:10A9300038B50021012548B101280CD0032809D1E0
:10A94000FFF734FBBDE83840FEF756BB4FF0E02080
:10A95000C0F8805138BD8DF800106846FCF78EFABB
:10A96000064C207808B9FEF72BFBE068401CE0603D
:10A97000A5709DF80000FCF7A5FA38BDF43800205A
:10A980003EB5044609496846FFF7ACFA08E000BF47
:10A99000D0E900212046904730B16846FFF7B9FA68
:10A9A00002980028F4D13EBD11203EBD98B20200AD
:10A9B0003EB5044608496846FFF794FA07E000BF31
:10A9C000D0E90021204690476846FFF7A2FA029896
:10A9D0000028F5D13EBD0000A4B2020002498969F9
:10A9E000002900D008477047603800202DE9F04169
:10A9F0001400884618D000250E4F032608EB0501E9
:10AA000022460020FBF714FF0544241A40B9387889
:10AA1000002809D008494FF47A408847761E05D0AF
:10AA200001203870002CE9D1BDE8F0810020387099
:10AA3000FAE70000702B002071B202002DE9F0410E
:10AA40000746806A14468846C8B3002531E000BF37
:10AA5000B96A05EB450001EB8006B088801CFE2832
:10AA600002D90C20BDE8F0812288401C08F80200C1
:10AA700020881622401C80B2208008F80020208800
:10AA8000401C80B2208000EB0801308800F0ACF957
:10AA90002188084480B22080B28842B1B16871B187
:10AAA0004044FBF781FC2088B188084420806D1C5D
:10AAB000EDB297F82C00A842CAD80020D2E7FFE7F1
:10AAC0000720CFE70A78062822F0FF020A7010D28A
:10AAD000DFE800F0030507090B0D002008E0112056
:10AAE00006E0212004E0312002E0122000E02220D4
:10AAF00008707047002805D10349012048700020E4
:10AB0000FDF7D6BA70470000F438002010B51620C3
:10AB1000FCF75EF8A0B1114890F80004400908283D
:10AB200011D20121814011F0EC0F0CD00C48826849
:10AB30004FF480016AB1016841F48001016010BDE9
:10AB400042F2010001E042F20200BDE81040FCF7D1
:10AB5000AFB84FF0E020C0F8001110BD16E000E0E3
:10AB6000083B00202DE9F84F204D924689460646C5
:10AB70009846012269461846AF68FDF767F958B351
:10AB8000009800210446801C09E000BF00EA07038A
:10AB90005AF8212005EB8303401C491CDA6041452B
:10ABA000F4D34FEA164AFDF7F9FB4AEA0041601C6C
:10ABB000384005EB80003C4005EB8402C160D06862
:10ABC00066F3C50068F3891069F39F2020F0030045
:10ABD000401C20F00400D06095F8200402E000BF83
:10ABE000FEF7B6FC0028FBD1BDE8F88FB83C00208A
:10ABF0002DE9F84F1D4C00256846D4E901A6FDF764
:10AC0000D7FB002738B30023009A61681CE0D1F815
:10AC100000C00846944503D9ACEB02020A6015E077
:10AC2000A2EB0C0263440760D0F80CC0C1698146F6
:10AC3000BCF1000F08D006EB030828F07F48C0E9FC
:10AC4000018CC9F81C5005460029E0D128466160F6
:10AC5000FDF7FAFC03E02846FDF7F6FC10B150467C
:10AC6000FDF748FAE770BDE8F88F0000382B0020A8
:10AC70000D4B10B5596831B102680C68A24204D876
:10AC8000A21A0A60C161586010BD0B4603E00B4672
:10AC9000C969121B21B10C689442F8D3A41A0C6044
:10ACA0000260C161D86110BD382B00202DE9F04150
:10ACB000144E77683D462C4603E0844204D0254676
:10ACC000E469002CF9D11BE0D4B1A5420BD1F8699D
:10ACD000706040B90C49012088600021B160F070BB
:10ACE0002F20FFF799F92168E069E86110B1026847
:10ACF000114401607068874202D00120BDE8F081F4
:10AD00000020FBE7382B0020001001407CB50646F0
:10AD100000240D468DF800406846FCF7AFF801A806
:10AD200000F014F970B10570094946609DF80400FF
:10AD300048709DF80000FCF7C5F81420FBF7A6FC4E
:10AD400020467CBD04249DF80000FCF7BBF8F7E723
:10AD5000DC3900202DE9F041194D6C68002C2CD015
:10AD6000184800270068A968B846401A20F07F46B6
:10AD70002068B0420CD82146361A0744E469087CA2
:10AD800020B181F81080886949698847002CEFD18B
:10AD900029786878814206D1401CC0B268700228C8
:10ADA00001D185F80180064869780C3040F821709F
:10ADB000BDE8F0411420FBF769BCBDE8F08100005C
:10ADC000382B00200415014070B50C4605464FF4A1
:10ADD0008E71FFF7DAF8216AA068415C206A401C96
:10ADE0002062C5F81C1570BD0870000A487002206A
:10ADF000704700002DE9F05F8346DDE90A4A994675
:10AE000090460D460846012703E000BFB0FBF8F06E
:10AE10007F1C4045FAD2B94500D94F465FEACA7057
:10AE200012D18CB15FEA8A7002D5B9F1000F01D05E
:10AE3000202607E0302605E031465846641EFDF71F
:10AE40004DF80CB1A742F7D35FF00106B9F1010F3D
:10AE500002D9A9F1010903E0B5FBF6F0404502D3A0
:10AE600006FB08F6F2E7DFF83C9000BFB5FBF6F012
:10AE700000FB165519F800105846FDF72FF8B6FBE1
:10AE8000F8F6002EF2D15FEACA7009D0002C07D084
:10AE9000A74205D220215846641EFDF71FF8F5E7AA
:10AEA000BDE8F09FE6B00200F8B5054680B2FDF7B8
:10AEB0000DFB040013D0154E207A0027317B884209
:10AEC0000ED2A8B204F10A0175DF28B1112806D00C
:10AED000BDE8F840FFF782BD207A401C2072F8BD23
:10AEE0002772307C38B1A8B23B2176DF18B1082830
:10AEF00001D0FFF773FD71690029F0D08DF8007063
:10AF0000ADF8025068468847F8BD00006038002060
:10AF1000417939B190F8521221B990F8540208B130
:10AF2000012070470020704730B40446007A0028A2
:10AF30000AD06088002166DF28B1112802D061683C
:10AF400030BC08470120207230BC70470A494A785B
:10AF50008B78521CD2B2934200D100220B789342DC
:10AF600001D1002070470270487800EB400001EBEF
:10AF7000C000001D70470000DC3900202DE9FC41B5
:10AF80001646DDE90854CDE900541F4680460222EA
:10AF900000F00CF8002807D1CDE900543B46102200
:10AFA0003146404600F002F8BDE8FC812DE9FC5F27
:10AFB0000026DDE90C4B994692468E46804627884E
:10AFC000354630E0D8F80400002200EB85006946E1
:10AFD0000068019001A864DF002830D19DF80000CE
:10AFE00050451FD10EB1002100E002212288084403
:10AFF0001118594522D846B9521C90B2208009F840
:10B0000000E02088401C20800126218801A801EB57
:10B010000902694664DF002811D120889DF80010DC
:10B02000084420806D1CB8F80000A842CADC56B164
:10B030002088C01B401E80B2FF2802D90C20BDE82A
:10B04000FC9F09F807000020F9E70000000000005D
:10B050000338FDD870470D0E0F100B0C18190000A7
:10B06000C0370020E03700200C3800200B00030020
:10B07000997B02000C000300997B0200180003007A
:10B08000997B020019000300997B0200770A0000F7
:10B0900000000000770A0000000000007ADA0000DB
:10B0A000000000009ECADC240EE5A9E093F3A3B5DE
:10B0B0000000406E0000005000030050000000003F
:10B0C000000000000100000001000000000000007E
:10B0D0000000000000000000000000000000000070
:10B0E0000338FDD87047303132333435363738398C
:10B0F00041424344454600000000000000000000BB
:10B10000000000000000000000000000000000003F
:10B11000F8B0020010B1020004000000556E6B6E22
:10B120006F776E206572726F7220636F64650000C6
:10B1300000000000CCB702000100000078B6020059
:10B14000020000006CB4020003000000ECB6020034
:10B150000400000040B702000500000020B6020015
:10B1600006000000BCB502000700000028B702007E
:10B170000800000034B602000900000098B6020082
:10B180000A000000B4B702000B00000054B4020033
:10B190000C0000004CB602000D0000001CB80200BC
:10B1A0000E00000018B702000F00000054B70200A4
:10B1B0001000000088B702001100000030B8020043
:10B1C0001200000004B8020013000000A0B7020043
:10B1D00080000000D4B502008100000010B502001C
:10B1E00082000000D0B4020083000000B0B402006E
:10B1F00084000000ECB4020085000000F8B50200F5
:10B200008600000000B70200900000009CB502001C
:10B210009100000090B402009200000060B60200AD
:10B220000082000068B7020001820000B4B602008C
:10B2300002820000D0B60200008400002CB502009B
:10B2400001840000D8B702000284000074B5020037
:10B250000384000050B502002994020027940200E4
:10B260002194020000000000000000000000000027
:10B270000338FDD870470000203C00207F0000000C
:10B28000A03C0020000000000000000000000000C2
:10B29000000000000100000784B2020094B2020026
:10B2A00008000000BCB20200CCB20200080000009E
:10B2B000CCB20200DCB202000800000014BC0200A4
:10B2C0001CBC0200000000000000000004BC0200E2
:10B2D00014BC02000000000000000000B4BB02002B
:10B2E000BCBB0200BCBB0200DCBB0200DCBB02003A
:10B2F000ECBB0200ECBB0200F4BB0200982A002069
:10B30000DCB20200FCB2020008000000F4BB020044
:10B31000FCBB0200FCBB020004BC02000CB3020038
:10B320001CB3020008000000004040404040404084
:10B330004040414141414140404040404040404008
:10B3400040404040404040404005020202020202AC
:10B3500002020202020202020220202020202020FB
:10B36000202020020202020202029090909090900F
:10B3700010101010101010101010101010101010CD
:10B380001010101002020202020288888888888841
:10B39000080808080808080808080808080808082D
:10B3A00008080808020202024000000029B3020057
:10B3B00073645F626C655F6761705F646174615F35
:10B3C0006C656E6774685F757064617465282920A8
:10B3D000287265717565737429206F6E20636F6EB6
:10B3E0006E656374696F6E2030782578207265749D
:10B3F00075726E65642025732E0000005468652008
:10B4000072657175657374656420636F6D62696ED2
:10B410006174696F6E206F6620545820616E6420DD
:10B420005258207061636B6574206C656E67746838
:10B430007320697320746F6F206C6F6E6720627960
:10B44000202575206D6963726F7365636F6E647319
:10B450002E0000004E52465F4552524F525F494EF9
:10B4600056414C49445F4441544100004E52465FAE
:10B470004552524F525F534F4654444556494345F7
:10B480005F4E4F545F454E41424C45440000000022
:10B490004E52465F4552524F525F464541545552B7
:10B4A000455F4E4F545F454E41424C4544000000BD
:10B4B0004E52465F4552524F525F4D555445585F6C
:10B4C000554E4C4F434B5F4641494C4544000000AC
:10B4D0004E52465F4552524F525F4D555445585F4C
:10B4E0004C4F434B5F4641494C4544004E52465FEA
:10B4F0004552524F525F4D555445585F434F4E444D
:10B500005F494E49545F4641494C454400000000A4
:10B510004E52465F4552524F525F4D555445585F0B
:10B52000494E49545F4641494C4544004E52465F9E
:10B530004552524F525F424C455F495053505F5203
:10B54000585F504B545F5452554E4341544544004C
:10B550004E52465F4552524F525F424C455F4950F2
:10B5600053505F504545525F52454A454354454408
:10B57000000000004E52465F4552524F525F424C0F
:10B58000455F495053505F4C494E4B5F44495343CC
:10B590004F4E4E4543544544000000004E52465F16
:10B5A0004552524F525F4150495F4E4F545F494D93
:10B5B000504C454D454E5445440000004E52465FA8
:10B5C0004552524F525F4E4F545F535550504F5259
:10B5D000544544004E52465F4552524F525F4D4FC4
:10B5E00044554C455F4E4F545F494E495449414C78
:10B5F000495A4544000000004E52465F4552524FA2
:10B60000525F4D4F44554C455F414C524541445962
:10B610005F494E495449414C495A45440000000095
:10B620004E52465F4552524F525F4E4F545F464F07
:10B63000554E44004E52465F4552524F525F494E5E
:10B6400056414C49445F5354415445004E52465F65
:10B650004552524F525F444154415F53495A45004D
:10B660004E52465F4552524F525F494F5F50454ED2
:10B6700044494E47000000004E52465F4552524F2B
:10B68000525F5356435F48414E444C45525F4D49CB
:10B690005353494E470000004E52465F4552524FA9
:10B6A000525F494E56414C49445F4C454E475448C1
:10B6B000000000004E52465F4552524F525F4452C6
:10B6C000565F5457495F4552525F414E41434B00CC
:10B6D0004E52465F4552524F525F4452565F545746
:10B6E000495F4552525F444E41434B004E52465FC4
:10B6F0004552524F525F494E5445524E414C000004
:10B700004E52465F4552524F525F53544F5241473B
:10B71000455F46554C4C00004E52465F4552524FD5
:10B72000525F4E554C4C00004E52465F4552524FB0
:10B73000525F494E56414C49445F504152414D0081
:10B740004E52465F4552524F525F4E4F5F4D454DF0
:10B75000000000004E52465F4552524F525F464F26
:10B760005242494444454E004E52465F4552524F64
:10B77000525F4452565F5457495F4552525F4F568D
:10B78000455252554E0000004E52465F4552524FB0
:10B79000525F494E56414C49445F41444452000077
:10B7A0004E52465F4552524F525F5245534F55528B
:10B7B000434553004E52465F4552524F525F494EE9
:10B7C00056414C49445F464C414753004E52465FF8
:10B7D00053554343455353004E52465F4552524FD3
:10B7E000525F424C455F495053505F4348414E4E73
:10B7F000454C5F414C52454144595F45584953546B
:10B80000530000004E52465F4552524F525F434F25
:10B810004E4E5F434F554E54000000004E52465F5F
:10B820004552524F525F54494D454F555400000008
:10B830004E52465F4552524F525F42555359000097
:10B840007761726E696E67006465627567000000FB
:10B850001B5B313B33306D001B5B306D0000000023
:10B860001B5B313B33316D001B5B313B33326D0071
:10B870001B5B313B33336D001B5B313B33346D005D
:10B880001B5B313B33356D001B5B313B33366D0049
:10B890001B5B313B33376D00696E666F0000000043
:10B8A0006572726F7200000073645F626C655F6343
:10B8B00066675F73657428292072657475726E659A
:10B8C00064202573207768656E20617474656D70DF
:10B8D00074696E6720746F2073657420424C455FF5
:10B8E00047415454535F4346475F5345525649437B
:10B8F000455F4348414E4745442E000073645F62F4
:10B900006C655F6366675F73657428292072657470
:10B9100075726E6564202573207768656E2061748A
:10B9200074656D7074696E6720746F207365742020
:10B93000424C455F434F4D4D4F4E5F4346475F5628
:10B94000535F555549442E0073645F626C655F63B5
:10B9500066675F73657428292072657475726E65F9
:10B9600064202573207768656E20617474656D703E
:10B9700074696E6720746F2073657420424C455F54
:10B9800047415454535F4346475F415454525F54B8
:10B9900041425F53495A452E0000000073645F62C4
:10B9A0006C655F6366675F736574282920726574D0
:10B9B00075726E6564202573207768656E206174EA
:10B9C00074656D7074696E6720746F207365742080
:10B9D000424C455F434F4E4E5F4346475F474150A1
:10B9E0002E00000073645F626C655F6366675F735F
:10B9F000657428292072657475726E6564202573DC
:10BA0000207768656E20617474656D7074696E6707
:10BA100020746F2073657420424C455F4741505F2E
:10BA20004346475F524F4C455F434F554E542E009F
:10BA300073645F626C655F6366675F736574282912
:10BA40002072657475726E65642025732077686551
:10BA50006E20617474656D7074696E6720746F20F8
:10BA600073657420424C455F434F4E4E5F434647DB
:10BA70005F474154542E00006E72665F626C655FD2
:10BA80006761747400000000626C655F6E7573001E
:10BA9000636C6F636B000000434C4F434B0000002E
:10BAA0004750494F5445000050525300554152549D
:10BAB00000000000554152544500000050444D0024
:10BAC0007077725F6D676D74000000007274745F50
:10BAD0006C6F675F6261636B656E640061707000BC
