:020000022000DC
:1060000000000420756302005D6302005F6302000C
:106010006163020063630200656302000000000028
:1060200000000000000000000000000067630200A4
:1060300069630200000000006B6302006D630200F0
:10604000DD7F02006F630200518202006F63020075
:106050006F6302006F630200A18002006F630200A1
:106060006F6302006F6302006F6302006F630200E0
:106070006F6302006F6302006F6302006F630200D0
:106080006F630200956E02006F6302006F6302008F
:10609000316F02006F63020031A702006F630200DC
:1060A0006F6302006F6302006F6302006F630200A0
:1060B0006F63020011840200000000000000000075
:1060C0006F6302006F6302006F6302006F63020080
:1060D0006F6302006F6302006F6302006F63020070
:1060E0006F6302006F6302006F6302000000000034
:1060F000000000006F630200000000006F630200F8
:10610000000000000000000000000000000000008F
:10611000000000000000000000000000000000007F
:10612000000000000000000000000000000000006F
:10613000000000000000000000000000000000005F
:10614000000000000000000000000000000000004F
:10615000000000000000000000000000000000003F
:10616000000000000000000000000000000000002F
:10617000000000000000000000000000000000001F
:10618000000000000000000000000000000000000F
:1061900000000000000000000000000000000000FF
:1061A00000000000000000000000000000000000EF
:1061B00000000000000000000000000000000000DF
:1061C00000000000000000000000000000000000CF
:1061D00000000000000000000000000000000000BF
:1061E00000000000000000000000000000000000AF
:1061F000000000000000000000000000000000009F
:10620000354936480A1A02D0072291438D4634494F
:1062100034480A1A06D00722914381F309880222E2
:1062200082F3148830483149314A00F044F831484B
:106230003149324A00F03FF831483249324A00F0E1
:106240003AF832483249334A00F035F83248334997
:10625000334A00F030F833483349344A00F02BF821
:1062600033483449344A00F026F83448344900228F
:1062700000F02CF833483449002200F027F8334866
:106280003349091A082902DB002202604160314AC1
:1062900090471F481F49884205D00268043003B464
:1062A000904703BCF7E700208646EC46002000211B
:1062B000294A9047FEE7884207D0521A05D0037852
:1062C00001300B700131013AF9D17047884202D098
:1062D00002700130FAE770470000042000E003205C
:1062E0000000042000000420C0BB0200982A002007
:1062F000042B0020D4630200D463020036AD0200F8
:10630000C0BB0200982A0020982A002034AE020068
:1063100034AE020034AE020034AE020034AE0200ED
:1063200034AE020034AE020034AE0200BEBB020046
:106330002CBC0200042B0020042B0020042B002086
:10634000EA420020EC420020EC420020EC42002017
:10635000EC6200209D630200218E0200FEE7FEE752
:10636000FEE7FEE7FEE7FEE7FEE7FEE7FEE7FEE705
:10637000704700BF1048804710484FF0070188431E
:1063800085460F4880470F48016841F4700101605D
:10639000BFF34F8FBFF36F8FFFF732BF0A480B4930
:1063A0000B4A884207D0521A05D0037801300B708F
:1063B0000131013AF9D170477163020000000420F5
:1063C000B57B020088ED00E034AE0200982A002080
:0463D000982A0020E7
:1063D4007047000007B5044B0093044A402300F0C3
:1063E40032F803B05DF804FBF5630200052B0020CE
:1063F4002DE9F84388461446B2B10F4B0F4E0325DE
:10640400002743F00109224608EB0701002002F0AF
:1064140095FE0744241A48B933782BB14FF47A40D7
:10642400C847013D02D13570BDE8F88301233370BC
:10643400002CE8D1F8E700BF40AE0200042B002096
:10644400704702F0ABBEF0B595B01D46164608463F
:106454000C4601F0F1FA1A9B0D93CDE9086500256D
:106464002B46082205A920460A958DF82C500C9538
:1064740001F0FEFA079B0293069B03939DF81430E8
:106484008DF8115003F00302012A1DD1BDF8142028
:10649400059DC3F3C203C2F383168DF81030B20016
:1064A40008230EA9204601F0E3FAC5F3952508ABAD
:1064B4000093324602AB0EA9284600F05BFB20464F
:1064C40001F0BEFA15B0F0BD022AF8D1BDF816509D
:1064D400C3F3C203C5F389158DF810300827082DBE
:1064E4002E4628BF08263B4632460EA9204601F018
:1064F400BFFAAD1B08AB02AA31460EA8374400F020
:106504009DFB002DEBD1DAE708B5FFF79AFF0448AD
:10651400042100F099FA034B01225A7108BD00BF0F
:1065240024AE0200982A0020037813F0040216D047
:1065340003F00303012B03D0022B09D00120704781
:106544000A6800880232C0F3831002440A60F5E747
:106554000B684288023303EB92130B60EEE710469C
:10656400704700002DE9F04FDFF830A187B00F46E7
:1065740000230446861C0DF1070015468DF80730EC
:1065840000F00CFFDAF800103960DAE90132134444
:1065940001335B1A0AF21C470AF583690AF21448AC
:1065A400B3421CD30020002D73D004F00F039B01D1
:1065B40043F0050363F30F00DAF80020DAF808303B
:1065C4001340033332444AF823009DF80700CAF805
:1065D400002000F007FF012007B0BDE8F08F012183
:1065E400384600F060FF484600F075FF404600F072
:1065F40072FFDAF80400DAF808B0029000EA0B003F
:1066040003300AEB800002A9FFF78EFF029B50BB08
:106614000BEA03020AEB820203F1020CD268039232
:10662400013303EA0B0B0AEB8B0B02F00302012A82
:10663400DBF80C10CDF808C023D0022A16D083460C
:10664400404600F04BFF10B1029BCAF80430594693
:10665400384600F028FFDAE901231344DAF8002071
:1066640001339B1A9CE70BEA0300C9E7BDF80E301F
:10667400C3F3891303334FEA114B0CEB93030293D7
:10668400DEE7BDF80C30C3F383134FEA114B6344C8
:10669400F5E7A40544F006008EE700BF182C00209F
:1066A4000B4B0C48FF2210B59A600022C3F8182443
:1066B400C3E90022C3F8142483F8202401F075F9F7
:1066C400044610B9044801F01DFA204610BD00BF6D
:1066D400182C0020A0AD02007CAE020030B50A4C9C
:1066E40071B10A4A0A49121BD20800239A4201D105
:1066F400002030BD31F82350854202D00133F5E744
:10670400034654F83300F4E7B4AD020024AE0200AB
:10671400982A0020094B013903EBC000032909D84A
:10672400DFE801F00A02040604207047007970478C
:10673400407970470020704702207047B4AD0200D2
:10674400034BD3E90030C31A58425841704700BF85
:10675400182C00202DE9F04387B0FFF7F1FF06461F
:10676400002840F0FE80804CC4F81804BFF34F8F1B
:106774006368A56802932B40033304EB830002A9EA
:10678400FFF7D2FE029B18B1D4F81824002A62D075
:1067940005EA0302991C013304EB82022B4004EB4B
:1067A4008303D268DB68049302F00303022B039291
:1067B400029163D1BDF80E306C48C3F38917502F92
:1067C400B84628BF4FF0500808F1080168F38F134A
:1067D400C1F30901ADF80E3001F0FFF806460028B8
:1067E40000F0AA8001F028F90023082203A930460A
:1067F40001F034F9029925EA01020132B8EB820F63
:106804004FEA820333D95FFA88F863B32940DDB2D3
:10681400A8EB050803315FFA88F9A846544D04EB48
:10682400810108234246304601F018F93DB108F1D0
:106834000803DBB24A462946304601F00FF9029BB1
:10684400033703EB97070297D4F81834002B4BD186
:10685400D4F810545BE022689A428CD862603046C7
:1068640007B0BDE8F08342491D469946D9E729405F
:1068740003310823424604EB8101DDE7012B5BD1A0
:10688400BDF80C303948C3F38311062928BF06210B
:1068940061F38913023101F00F018900ADF80C3066
:1068A40001F09BF80646002846D001F0C5F8002305
:1068B400082203A9304601F0D1F80027BDF80C20C6
:1068C400C2F38312BB00974203F10803BCD20299BE
:1068D4004A1C29400331029204EB81010422304610
:1068E40001F0BCF80137E9E7304601F0A9F8FFF7F9
:1068F40027FF80F00100C6B2B1E7EB685B7923B1F2
:106904002B6831461B6828469847EB681D68002DA4
:10691400F3D1304601F094F80DF107008DF80750DB
:1069240000F03CFDD4F818340BB9029B63609DF869
:10693400070000F057FDDAE7D4F8104454B90D4BC2
:106944000D480E49C01AC008000440F0020000F0CF
:1069540063F8CCE7236820469B689847E3681C6883
:10696400ECE700267BE700BF182C0020A0AD020056
:10697400242C0020B4AD0200E4AD020064AE020099
:106984002DE9F74F224E04460F46924601A90122F3
:106994001846D6F808909B46FFF7E4FD20B3019D06
:1069A4004FF00008AA1CD84508EB020126D119486B
:1069B400002100F049FD80F31000000440EA144077
:1069C400E4006B1C04F0380403EA090305EA090532
:1069D40044F0010406EB8303033544EA881444EAD3
:1069E4008724D86046F8254096F820341BB1FFF779
:1069F400B1FE0028FBD103B0BDE8F08F09EA010124
:106A040006EB81015AF82830CB6008F10108CAE787
:106A1400182C00203430002000231A46FFF7B0BFA2
:106A240007B50123019201AAFFF7AAFF03B05DF89D
:106A340004FB07B5CDE9002302236A46FFF7A0FF54
:106A440003B05DF804FB000030B50F4CD4F81024FB
:106A540003460020114631B9D96808714AB9C4F80F
:106A640010340A6030BDC9680D79854206D00968C2
:106A7400F1E7D26814680C601360F3E701300A2868
:106A8400E8D14FF0FF30EDE7182C002038B5084B63
:106A94000125D3F8104483F8205404B938BDE368C1
:106AA4005D71236820465B689847E3681C68F4E7D7
:106AB400182C002030B5C38885B004460D4633B188
:106AC400144A00921449154A284600F06AFD217AB6
:106AD40005291DD0637A4BB1A088FFF71BFE104B2C
:106AE400104953F82020284600F05BFD227A0E4B13
:106AF400A08853F8222003920021FFF7EFFD039AA8
:106B04000A490346284605B0BDE8304000F049BDB7
:106B140005B030BDA8AE020090AE020088AE0200FF
:106B240014AF0200ADAE020038AF0200B0AE0200F6
:106B340007B503460846197A052911D05B7A2BB1AB
:106B4400094A0A49019000F02CFD01980849019076
:106B540000F027FD019803B05DF804EB00F016BDCA
:106B6400002AF8D0F2E700BFA8AE0200ADAE0200E2
:106B7400A5AE02002DE9F04385B01F460C9D00230D
:106B840095F80C902B7306460C46904629463846D9
:106B9400FFF790FFB8F1060F09D8DFE808F00412F8
:106BA400181F283340003146284600F0FAFC002222
:106BB40029463846FFF7BCFF85F80C9005B0BDE8C0
:106BC400F08322683146284600F0EBFCEFE7D4E975
:106BD40000233146284600F0E4FCE8E7A36800936C
:106BE4003146D4E90023284600F0DBFCDFE7E36804
:106BF4000193A36800933146D4E90023284600F0AA
:106C0400D0FCD4E723690293E3680193A36800935B
:106C14003146D4E90023284600F0C3FCC7E7636982
:106C2400039323690293E3680193A36800933146B5
:106C3400D4E90023284600F0B4FCB8E708292DE97C
:106C4400F74F80460E4617461C4639D8002593F860
:106C54000C901D7319461046FFF72CFFDFF880A037
:106C6400DFF880B0AE422ED918F8052059462046E8
:106C740000F097FC0135082DF4D11849DFF868A01D
:106C8400DFF868B0204600F08CFC0025AE421FD926
:106C940018F805200192104603F098FF0028019A85
:106CA400594608BF2E22204600F07BFC0135082DF2
:106CB400ECD1012221463846FFF73AFF84F80C90C4
:106CC40003B0BDE8F08F5146204600F06AFCD1E7DE
:106CD4005146204600F065FCE8E700BFC4AE020060
:106CE400C0AE0200BAAE0200C2AE0200C6AE0200DE
:106CF4001FB50021039001AA44F20100CDE901115E
:106D040000F004F805B05DF804FB000038B572B675
:106D1400FFF7BCFEFFF71EFD0028FBD1104B114C02
:106D2400114D1249E41AE408240444F00100FFF769
:106D340073FED5F8F030DB0700D500BE0C4944F0F3
:106D44000200FFF769FEBFF34F8FEA68094B02F4B4
:106D5400E0621343EB60BFF34F8F00BFFDE700BF5A
:106D6400B4AD0200E4AD020000ED00E04CAF02005F
:106D740058AF02000400FA0510B58468C26883881D
:106D8400121B934208D3C26813400268D154C368EB
:106D94000133C360002010BD0420FCE78268C3688F
:106DA4009A420AD08268838813400268D35C0B70CD
:106DB400836801338360002070470520704700001A
:106DC400094B5A7899780132D2B2914208BF002215
:106DD400197891421FBF02705878182202FB0030C4
:106DE40014BF043000207047D430002073B505462A
:106DF40000240DF107000E468DF8074000F0CEFA8E
:106E04000DF10600FFF7DCFF90B10670094B9DF809
:106E1400062045605A709DF8070000F0E3FA24B993
:106E2400054B4FF48012C3F80021204602B070BD18
:106E34000424F0E7D430002000E100E0024B4FF4DA
:106E44003C6043F00103184770AF020038B50C4BA7
:106E54000C4C4FF40032C3F8802001254FF48033EA
:106E6400C4F84833C4F808336560FFF7E7FF064BFE
:106E7400A56000241C60FFF7E1FF044B1C7038BDC3
:106E840000E100E000100140F0310020E131002079
:106E9400F8B51F4B1F491B680025C1F84051C1F8C4
:106EA4004451C1F84851C1F84C51C1F80051C1F8DE
:106EB40004514BB3D1F8044517490968641A24F006
:106EC4007F442F461A68A24209D8A41A15441A7C92
:106ED400DE691AB1D3E905201F749047AEB90F4A91
:106EE4000F4B11781B788B4205D10133DBB2022B97
:106EF40008BF0023137012780A4B43F822500A4B40
:106F04004FF48012C3F80021F8BD3346DAE700BF1E
:106F1400F431002000100140F0310020ED31002058
:106F2400EC310020E431002000E100E02DE9F04FD5
:106F3400A14AA24913780978A14D994285B03CD061
:106F44000133DBB2022B08BF002313709D49127872
:106F54009D4B0F6853F822003B1823F07F43002217
:106F64000B602B6816461446944613B942B12B6045
:106F740006E0196881420ED902B12B60091A196022
:106F840001272B68DFF848A201934FF00008BEB92F
:106F9400DFF844B260E0401A0C44D968D3F81CE02E
:106FA400C3F800C031B13A1922F07F42C3E901218C
:106FB400DE611E4673460122D7E700263746E0E726
:106FC4003446F6697F4B60681B68DFF810C2A1681D
:106FD400C21A22F07F42624500F2A6800A4422606F
:106FE400012222742A680023C4E90133E361002AE0
:106FF40040F0A3802C60CAE79BF802105A1CD2B25E
:1070040091428BF8002004BF00228BF80020182244
:1070140002FB03B32A6819799C68022975D00329F5
:107024007FD0012918D1207CB0B9D3E90312A26022
:107034005A69E2609A69654BA2611A78002A18BFFE
:1070440001466160BEE78C4200F094808946C969BC
:107054000029F8D1002323749BF800309BF8012009
:107064009A42C9D12B68B8F1000F04D1019A9A420F
:1070740001D1002F43D0002B79D0D3F800A0544D78
:10708400504BD5F804751C68DFF854813E1B98F802
:10709400003026F07F4603369BB94FF48033C5F8A1
:1070A4004433C5F804334B4B4FF400324FF001091D
:1070B400C3F880211A60C5F80090FFF7BFFE88F876
:1070C4000090B2452CBF5444A41924F07F44C5F861
:1070D4004045D5F80435DB1B23F07F43E41B033321
:1070E40024F07F44A3420AD9D5F80435C5F84035C5
:1070F400FFF7A4FE374B4FF40032C3F80021334BA3
:1071040000221A7005B0BDE8F08F114691469FE742
:107114001174D2690123002AFAD1002B9CD02A6071
:107124009AE700231946F6E71B1A23F07F438B42A4
:1071340034BFCB1A0023236052E7216813689942B5
:1071440013D85B1A1360E26154E7091AD8691A4626
:1071540038B1034618688842F7D3401A18601846B5
:1071640013462160E061DC6111E71346F2E7FFF7A3
:107174006DFEC4E74C4511D1D3692B6073B9DFF8B8
:1071840044E00120CDE90212CAF80800CEF800302C
:107194000E4B1870FFF752FEDDE902120B68C96945
:1071A400C9F81C1011B1086803440B602B689342A2
:1071B40018BF4FF001084DE7EC310020ED310020FD
:1071C400F4310020F0310020E4310020E0310020CF
:1071D4000010014000E100E0D4300020FEFF7F00F9
:1071E400E131002008B5FFF731FE104B00200B22DF
:1071F40018809A700E4B18600E4B18700E4B187056
:107204000E4B4FF48012C021C3F8802183F814136D
:107214001A6002F18042A2F56F22C2F8080583F8D1
:107224001113074BD2F804251A6008BDD43000208E
:10723400F4310020EC310020ED31002000E100E0C9
:10724400F0310020074B9B784BB132B128B1036871
:10725400187C20B959745A61704707207047082078
:10726400704700BFD43000202DE9F743DFF8848055
:1072740098F8023005460E461746ABB3A0B304296E
:1072840030D9436983B3437C0024012B0DF10700FB
:107294000CBF8946A1468DF8074000F07FF80DF138
:1072A4000600FFF78DFDD8B1012303700F4B456035
:1072B400D3F80435C0E90497C0E902369DF80630D6
:1072C40088F801309DF8070000F08CF824B9084BC9
:1072D4004FF48012C3F80021204603B0BDE8F083C8
:1072E4000424EFE70724F7E70824F5E7001001403A
:1072F40000E100E0D4300020064A92783AB130B17F
:10730400426922B1002202740221FFF76FBD0820F6
:10731400704700BFD4300020014BD3F804057047F8
:10732400001001400648074A03780749D35C01224C
:1073340013B1043001F016B80C3000F0B1BF00BF37
:10734400A02A00203C3200200832002010B501465B
:107354000E48FFF711FD0446A8B90D480D4A0378FD
:10736400D35C63B1043000F0F1FF60B90A49074807
:10737400FFF714FD38B9BDE81040FFF7D3BF0C3058
:1073840000F082FFF1E7204610BD00BFF831002075
:10739400A02A00203C3200200832002070B5EFF310
:1073A400108672B60C4A946801239CB993600B4B07
:1073B4000B4DD3F8801029401160C3F88050D3F8E6
:1073C400841051604FF0FF32C3F88420047006B972
:1073D40062B670BD0370FAE70C32002000E100E0F1
:1073E400FC06FFBD084B9A6810B55AB150B9EFF3CB
:1073F400108172B6054A1C6814605C685460986019
:1074040001B962B610BD00BF0C32002000E100E0FB
:1074140001F01F024B090121914000EB830000F0B1
:107424001EB801F01F0301229A404B0900EB8300B0
:10743400D14300F02CB84B0901F01F0150F8230090
:10744400C84000F00100704710B5034653E8000F30
:107454000A4643E8002494F0000FF7D110BD10B59C
:10746400034653E8002F42EA010043E8000494F085
:10747400000FF6D110BD10B5034653E8000F00EA23
:10748400010243E8002494F0000FF6D110BD10B5BA
:10749400034653E8002F02EA010043E8000494F095
:1074A400000FF6D110BD10B5034653E8002F02EBD0
:1074B400010043E8000494F0000FF6D110BD10B5AC
:1074C400034653E8002FA2EB010043E8000494F0C4
:1074D400000FF6D110BD0121FFF7C1BF0021FFF756
:1074E400CABF10B590B1D0E9012301689B1ADBB281
:1074F4000A60013BDBB2FF2B026802D1002010714D
:1075040010BD11684C1C14600B70F2E70E20F7E7F5
:1075140037B5054600240DF107008DF80740FFF745
:107524003DFF2A686B68116899420ED9481E1060A5
:1075340011F8013CEC68298A01FB0344AB6811791A
:107544001B1ADBB2994238BF13719DF80700FFF78D
:1075540049FF204603B030BD37B5054600230DF181
:1075640007000C468DF80730FFF718FF2A681368E8
:10757400591C1160E968641A298AB4FBF1F41C707F
:107584009DF80700FFF72EFF03B030BD826810B5E9
:1075940004462AB143690168006998470023A3603F
:1075A40010BD0EB403B5039921B104AB01AA019334
:1075B40000F06EF802B05DF804EB03B07047826827
:1075C40030B40468551C8560A154D0E901329A4254
:1075D40002D330BCFFF7DABF30BC70472DE9F84F57
:1075E4009846DDE90A43154682460F460A464FF09F
:1075F4000109AA420FD2C14538BFC14613F0010B9D
:1076040001D16CB900240126B8F1010F1BD908F18E
:10761400FF386E43F8E709F10109B2FBF5F2E8E738
:107624009B070ED5B8F1000F0CBF30262026A145CC
:10763400E9D2013C31465046FFF7C1FF002CF6D198
:10764400E0E72026F3E7B7FBF6F39D42E1D9DFF844
:107654003C80B7FBF6F3504618F8031006FB13778B
:10766400FFF7ADFF3346AB42B6FBF5F6F1D2BBF103
:10767400000F02D00CB1A14501D3BDE8F88F202141
:107684005046013CFFF79BFFF4E700BF76AF0200D2
:107694002DE9F74F054617468846002900F03E813C
:1076A40018F8011B49B92B7B002B00F037812846C1
:1076B40003B0BDE8F04FFFF769BF252940F0B7805C
:1076C400002698F800302D2B424608F1010823D0FB
:1076D400302B24D02B2B25D000242A2B02F101019E
:1076E40023D13B681A1D1B683A601C440A46137870
:1076F4002E2B26D101324FF0000A104610F8011B40
:10770400A1F1300CBCF1090F1DD80A2303FB0A13A5
:10771400A3F1300A0246F0E746F00106D1E746F04D
:107724000206CEE746F00406CBE711F8013CA3F1CC
:1077340030000928DBD80A2202FB0434303C0A4614
:10774400CBE74FF0000A12F8011B01F0FB00682898
:107754009046F8D0782909D86F290CD8632962D0CB
:1077640022D8252963D0582900F0888098F8003061
:10777400002B95D197E770390829F7D801A353F85E
:1077840021F000BFFB7802007177020071770200DC
:1077940091780200717702006F780200717702001D
:1077A4007177020081780200642901D06929DDD152
:1077B4003A68D2F80090111D89EAE9723960A2EBA7
:1077C400E9724FF0010B092A35DCD34538BFD346A3
:1077D4002CB1B9F1000F01DB720700D5013CB307EE
:1077E40002D5BAF1000F03D0F00701D44CBB00243A
:1077F400B9F1000F2DDAC9F100092D212846FFF750
:10780400DEFE06F00302022A04D1BAF1000F01D110
:107814001CBB0024CDE9004653460A2249462846AB
:10782400FFF7DCFEA2E73B681A1D19783A60284688
:10783400FFF7C5FE9AE70A230BF1010BB2FBF3F243
:10784400C1E7A345D4D220212846013CFFF7B7FE67
:10785400CCE77107D5D52B21D0E7A345DAD2302167
:107864002846013CFFF7ABFED2E73968CDE9004674
:107874000A1D3A6053460A220968D0E739680A1D8E
:107884003A60CDE9004653461022F5E73B681A1DDD
:107894003A6016F00106D3F8009024D1B9F1000F34
:1078A40003D0484603F015FA0646B4421DD809F140
:1078B400FF3919F8011F00293FF458AF2846FFF794
:1078C4007EFEF6E728460136FFF779FE19F8061022
:1078D4000029F7D1A642BFF449AF20212846013C34
:1078E400FFF76DFEF6E70026F0E720212846013C6D
:1078F400FFF765FED9E73B681A1D3A603021284638
:107904001C68FFF75CFE78212846FFF758FE00222A
:107914000823CDE900322146102280E703B0BDE8F8
:10792400F08F00BF2DE9F84FB0F806A04579D2F8E2
:1079340000B09DF828900AFB05F5043D88460BEB42
:107944000301A94203F1040488BFA5EB030BB4FBB4
:10795400FAF607460AFB1644C2F800B04EB9AAEB81
:1079640004055D4528BF5D46BBF1000F04D1BDE8A9
:10797400F88F3F68013EF1E7043408EB06003C440D
:107984002A46B9F1000F0DD02146ABEB050B03F0ED
:1079940022F9DA452E443F6855464FF0000428BFCB
:1079A4005D46E1E701462046EFE7FFF79ABDF8B5EB
:1079B40046790146721E0546002393422D6803D37F
:1079C4000024A64202D8F8BD0133F6E70F68284622
:1079D400FFF7C2FD01343946F3E72DE9F843068A7F
:1079E400CD1C0746FFF794FD043E35440446B5FB21
:1079F400F6F5F0B14FF48073EDB28380C680013D9B
:107A0400076081464FF00008A84512D23846FFF7B8
:107A14007FFD064648B163790133637108F10108BB
:107A2400C9F8000007608146EEE72046FFF7BFFF74
:107A340034462046BDE8F88301210430FFF733BD06
:107A440010B5012104460430FFF739FDC0B220B956
:107A54002046BDE81040FFF7AABF10BD1FB5039232
:107A64000022009203AAFFF75DFF05B05DF804FB56
:107A74001FB503920122009203AAFFF753FF05B03A
:107A84005DF804FB41DF7047064B10B500241C7001
:107A9400054B1C60BFF35F8F0449054800F03BF8B9
:107AA400204610BD203200202432002090AF020076
:107AB4001832002007B500230DF107008DF80730B8
:107AC400FFF76CFCF1EE103A23F09F03E1EE103A5D
:107AD400BFF35F8F0A4B4022C3F884219DF807004F
:107AE400FFF780FC02F008FE20B103B05DF804EB60
:107AF400FFF7C8BF20BF40BF20BF03B05DF804FB41
:107B040000E100E0836800225A60C3E904229A601D
:107B1400DA601A6070470B684A684360934208BF92
:107B24000023016008BF43607047436843B10268A3
:107B3400916852680B449342436004BF002343603E
:107B44007047000010B50D49A1F59472914201D817
:107B540000200FE08C1AE30F03EBE4035B1002EB4D
:107B6400C30452F83330834205D802D204F1080228
:107B7400ECE7606810BD2146E8E700BF94B402005A
:107B840008B5FFF7DFFF024B002808BF184608BD01
:107B940056B302004FF08053D3F83021082A03BFB4
:107BA400D3F83401B0FA80F0400900207047000097
:107BB40008B54FF080430022C3F80C21C3F810210C
:107BC400C3F838254FF0805203F54043D2F804142B
:107BD400C3F82015D2F80814C3F82415D2F80C14ED
:107BE400C3F82815D2F81014C3F82C15D2F81414BD
:107BF400C3F83015D2F81814C3F83415D2F81C148D
:107C0400C3F84015D2F82014C3F84415D2F824144C
:107C1400C3F84815D2F82814C3F84C15D2F82C141C
:107C2400C3F85015D2F83014C3F85415D2F83414EC
:107C3400C3F86015D2F83814C3F86415D2F83C14AC
:107C4400C3F86815D2F84014C3F86C15D2F844246C
:107C5400C3F87025FFF79EFF18B13B4B3B4AC3F8AE
:107C64008C26FFF797FF18B1394BFB22C3F8182570
:107C7400FFF790FF70B14FF080414FF08053D1F87F
:107C8400E42ED3F8583222F00F0203F00F0313430B
:107C9400C1F8E43EFFF77EFF20B12E4B4FF4007293
:107CA400C3F840264FF08043D3F80024D20744BFE2
:107CB4006FF00102C3F80024274AD2F8883043F455
:107CC4007003C2F88830BFF34F8FBFF36F8F4FF04C
:107CD4001023D3F80022002A03DBD3F80432002B4C
:107CE4002EDA1E4B0122C3F80425D3F80024002AFF
:107CF400FBD04FF010221221C2F80012D3F8002456
:107D0400002AFBD04FF010231222C3F80422134B95
:107D1400D3F80024002AFBD00022C3F80425D3F8AA
:107D24000024002AFBD0BFF34F8F0B490C4BCA68C9
:107D340002F4E0621343CB60BFF34F8F00BFFDE753
:107D4400084B094A1A6008BD0050004048810300EE
:107D540000F000400090024000ED00E000E001402F
:107D64000400FA05B42A00200090D003074B1B5CE2
:107D74001F2B8ABF064A4FF0A04203F01F03D2F81C
:107D84000405D840C04300F00100704794B40200D9
:107D940000030050074B1B5C1F2B86BF064903F0F2
:107DA4001F034FF0A041012202FA03F3C1F80C357E
:107DB400704700BF94B4020000030050074B1B5CE3
:107DC4001F2B86BF064903F01F034FF0A041012279
:107DD40002FA03F3C1F80835704700BF94B40200F7
:107DE4000003005008B50020FFF7E8FF0120FFF76B
:107DF400E5FF0220FFF7E2FFBDE808400320FFF79C
:107E0400DDBF08B50020FFF7C5FF0120FFF7C2FF63
:107E14000220FFF7BFFFBDE808400320FFF7BABF09
:107E24000A4B185C1F288ABF094B4FF0A04300F08F
:107E34001F00D3F804250121814021EA02000A40F1
:107E4400C3F80805C3F80C25704700BF94B40200BA
:107E54000003005038B5074C051E04F1080318BF91
:107E64001C4623682BB11A6822605B682846984731
:107E7400F7E738BD3032002020B9054B01225A7093
:107E8400FFF7E8BF012802D1014A9070F8E7704774
:107E94002832002020B9034B01225A70FFF7DABFC1
:107EA400704700BF2832002038B50B4C237883B9C3
:107EB4000A486360A3602361E36000F063F8054649
:107EC40002F01AFC08B900F069F80123237028466F
:107ED40038BD8525FBE700BF283200207D7E0200E7
:107EE40037B50B4C00230DF107008DF80730FFF771
:107EF40055FAE368013BE360E56815B900F062F800
:107F0400A5709DF80700FFF76DFA03B030BD00BF00
:107F140028320020012813B508D003281CD018B932
:107F2400114B0122C3F8802002B010BD0F4C002376
:107F34000DF107008DF80730FFF730FA23780BB9FD
:107F4400FFF7B2FFE3689DF807000133E360012304
:107F5400A370FFF747FAE7E700F020F802B0BDE8A6
:107F64001040FFF7BDBF00BF00E100E02832002051
:107F740000F18040002382B0036003680193019BF9
:107F840002B07047044A137923B90121106091802B
:107F9400184670478520704740320020084B1A6805
:107FA400D20706D4C02283F800230122C3F880211B
:107FB4001A604FF080430122C3F81825704700BFB0
:107FC40000E100E04FF080430122DA60D3F8182486
:107FD400D203FBD4704700004FF0804110B5D1F8B4
:107FE400003163B14FF48070FFF7C2FF0D4B587935
:107FF4000122C1F8082310B95A711B6898474FF041
:108004008042D2F8043163B14FF48270FFF7B0FFBD
:108014000223C2F80833034BBDE810401B6801205B
:10802400184710BD4032002000F1804000F5C040E8
:10803400002382B0036003680193019B02B0704780
:1080440003681F2B83BF03F01F03036001484FF035
:10805400A04070470003005007B5019001A8FFF746
:10806400EFFF019B00EB8300D0F8003723F440338B
:10807400C0F80037D0F8003743EA0141C0F80017D0
:1080840003B05DF804FBC208012300F0070003FA03
:1080940000F08B5C18438854704700002DE9F04FC2
:1080A40000248BB0CDE90444644D4FF48072012167
:1080B40002F1804303F5C04390B21B68012B06D143
:1080C400D5F804330B4202D0FFF7AEFF0C43043261
:1080D400B2F5907F4FEA4101EAD1584BD3F87C3195
:1080E400012B0ED14FF4BE70FFF79EFF4FF0A0435B
:1080F40044F00044D3F810350493514BD3F81035B1
:108104000593E3B2D3B14F4F00250126344210D07A
:10811400AB0003F1804303F5C043D3F81005D3F853
:10812400101557F8253023B1C1F30141C0F30520E0
:1081340098470135082D4FEA4606E7D1002C79DA35
:108144000023CDE906334FF0FF33CDE90833DFF8E0
:10815400F4A03D4B019300263546019B13F9014BD6
:108164000193631C4DD0C4F3C2070122E3B204F0AF
:108174003F0B04F0070402FA04F40AAA174417F8A0
:10818400081C21423DD00AEB0B014FEA931991F9E7
:1081940030105AF82180B8F1000F07D1B9F1030F5C
:1081A4002FD106A95846FFF76EFF02E0B9F1030F7D
:1081B400F7D003A8CDF80CB0FFF742FF039901F5FF
:1081C400E07150F8211017F8180C2042C1F3014156
:1081D40006D0022915D1B9F1030F0CD1494605E0A7
:1081E40003290ED1B9F1030F05D102215846FFF737
:1081F40033FF0135EDB2B8F1000F02D049465846BD
:10820400C0470136042EA8D1A5B14FF0A04304996C
:10821400D3F8102503F540739142D3F8103502D1F9
:108224000599994206D004920593069A079B0892F1
:1082340009938EE70BB0BDE8F08F00BF00600040EB
:108244000003005048320020A8320020014B1B6874
:10825400184700BFB43200200023435082B0435873
:108264000193019B02B070470A4610B54FF48E711A
:10827400FFF7F2FF136A9168C95C136A0133136252
:10828400C0F81C1510BD00000279044B2C2101FB21
:1082940002335869003818BF01207047BC320020EF
:1082A4002DE9F84F064689469246FFF7EDFF04464E
:1082B40000283DD196F804801F4F2C2508FB057B30
:1082C4004FF48E71CBF82000CBF814A08BF8280063
:1082D400CBF808903068FFF7BFFF30680123836054
:1082E4005946FFF7C1FFDBF804305D4613BB306825
:1082F4002A6A6B699A4211D33368D3F81C21002A85
:10830400FBD00122DA6000202C2303FB0877002332
:108314007B61BDE8F88F95F828303BB9D0F81C3163
:10832400002BF8D05946FFF79FFFE1E70F20EBE75A
:108334001120EEE72046ECE7BC3200200023435036
:1083440082B043580193019B02B070470279044BF9
:10835400242101FB02335869003818BF01207047FB
:10836400E83200202DE9F84301F06043B3F1005FE7
:1083740006468846914634D1FFF7E8FF044690BB91
:1083840032791B4F3068242505FB02754FF4907138
:10839400C5F81490C5F80880FFF7D0FF30684FF493
:1083A400AC71FFF7CBFF33686969A868C3F844056B
:1083B400C3F84815012199606968B1B9D3F820114F
:1083C400D3F8580149B90028F8D00F20242303FB1F
:1083D400027700237B61BDE8F883002818BF0F20D3
:1083E400F4E71020F7E71120F5E72046F3E700BF94
:1083F400E832002000F1804000F5E830002382B02C
:10840400036003680193019B02B070471FB53C49A8
:108414003C4CD1F80021002A47D04FF48070FFF77C
:10842400E9FFA37CDA4302F0010204EB820149680C
:1084340011B9617C02292DD1607C022818BF04EB9C
:1084440083034FF000010BBF012358686374596024
:108454004FF001038DF80C10E1740EBF02910290ED
:10846400A2748DF80430236801A89847637C022B1A
:1084740001D101236374237D53B101238DF80430AA
:10848400002302938DF80C30237501A823689847C4
:1084940004B010BDE37C002BE8D18DF804300293C6
:1084A40001238DF80C30E374DDE7D1F80431002B9F
:1084B400E1D04FF48270FFF79DFFC1F80025A37C43
:1084C400627404EB83038DF80C2059688DF8042042
:1084D40021B15A600291236801A89847A37CDB4329
:1084E40003F0010304EB83035A682AB102920022C9
:1084F4005A6001A8236898470023A374BBE700BF10
:1085040000D001400C33002070B5344C237C02466B
:10851400002B5FD1067A502E5ED8457A502D5BD859
:1085240021602F496374C4E9013363824368C1F84D
:108534000435437800785B0000F0010003F0020387
:108544000343C1F80835C1F81865C1F81C55907883
:108554001F288BBF00F01F050546224B4FF0A04398
:1085640005F5E071032643F821600121A940C3F811
:108574000C15D3781F2B8BBF03F01F011946194E1E
:108584004FF0A04601F5E075002146F82510144D82
:10859400C5F84005C5F844354FF48070FFF72AFF4D
:1085A4004FF48470FFF726FF4FF48270FFF722FF29
:1085B4000323C5F80433937A0B4A5B01DBB282F8D8
:1085C4001D334FF00053C2F880311360012323742C
:1085D400084670BD0820FCE70720FAE70C330020AA
:1085E40000D001400003005000E100E00A4B5A7C37
:1085F40002F0FF002AB15B7C012B0CBF002011208C
:10860400704702225A7401221A75044B4FF000522B
:10861400C3F80021704700BF0C33002000E100E0E4
:1086240070B5204C267C002E36D0637C032B35D0CD
:10863400002835D00B0433D41B4B4FF00052C3F841
:108644008020627CA37C022A1ABFDB4303F001036F
:10865400002304EB83056A68B2B9686004EB430342
:10866400124D9981022EC5F86005C5F8641509D02C
:108674000223012123744FF48070C5F80015FFF71D
:10868400B9FE2960104600E01120074B4FF000525C
:10869400C3F880211A6070BD0820FCE71120FAE7B6
:1086A4000720F8E70C33002000E100E000D001408F
:1086B4000C4B597C0129CAB20AD05A7C12B15A7C9B
:1086C400022A0CD1084A0020C2F8000558747047E9
:1086D400032159741A74044B00205A607047112006
:1086E400704700BF0C33002000D0014008B5094B8F
:1086F4001B7853B10020FFF761FB0120FFF75EFBFD
:10870400BDE808400320FFF759BBBDE80840FFF768
:1087140069BB00BF24330020F8B57A4C23780546A2
:108724001BB100232370FFF7E1FF172D00F28780B0
:10873400DFE805F00C1717425364757F878C878C2C
:10874400949999999999C3C8D0D8E3E3FFF7CEFFD8
:108754006D48FEF7D1FD6D4B002204461A70204689
:10876400F8BD0020FFF702FBF0B10020FFF726FB65
:10877400022D0CBF4FF4E1644FF47A64634B1D7017
:1087840000254FF400464FF4FA7029464FF47A72EC
:108794000023E4FB060102F059F92A460146BDE82C
:1087A400F8405948FEF760BDFFF7F4FA022D0CBFFC
:1087B400C8244FF4C874E1E70020FFF7D7FA40B1AA
:1087C4000020FFF7FBFA4FF44874504B03221A7051
:1087D400D6E7FFF7DFFAC824F7E70020FFF7C6FA69
:1087E40038B10020FFF7EAFA4FF47A64474B0422C9
:1087F400EDE7FFF7CFFA4FF4C874F7E70020FFF76F
:10880400B5FA48B10020FFF7D9FA404B05221A7097
:1088140041F69A110022C2E7FFF7BCFAF5E70020FF
:10882400FFF7FEFA394B06221A70002240F6CD41BA
:10883400B5E70020FFF7AEFA344B07221A70002484
:108844008DE701202070FFF7EBFAEEE7012020709E
:10885400FFF7E6FA00224FF48041A0E7FFF7D1FAD0
:108864002A4B0C22EAE72A482A4EFEF745FDD5F1A9
:10887400110504461CD0D8B9012D13D0C820454396
:1088840021464FF400474FF4FA704FF47A720023F4
:10889400C5FB070102F0DAF8224601461C48FEF740
:1088A400E3FC04460220FFF775FA0123337056E710
:1088B4000220FFF783FA0023F8E7FFF717FF134BB3
:1088C4001222BBE7FFF712FF0020FFF763FA0F4BFA
:1088D4001322B3E7FFF70AFF0120FFF75BFA0B4B04
:1088E4001422ABE7FFF702FF0020FFF753FA012041
:1088F400FFF750FA054B1522A0E7FFF782FA034B66
:108904001D709CE778330020483300207933002021
:108914002833002024330020044B1B6813F0010388
:1089240001D0FFF7F9BE1846704700BF743300202A
:10893400032811D8012A0AD101290FD100F10E020E
:10894400D2B20D4B00EB40001A54002070470129AD
:10895400F7D0022904D049B1072070470022F8E774
:10896400054B00EB400018444270EEE7024B00EB6D
:10897400400018448270E8E76833002008B50122FB
:1089840002210020FFF7D4FF08B1072810D10722E5
:1089940002210120FFF7CCFF08B1072808D10021EC
:1089A4000A220846FFF7C4FF10B1072808BF0020B9
:1089B40008BD00000388102B10B502D0112B1ED067
:1089C40010BD1A4C2168B1B901220846FFF7B0FF67
:1089D40008B1072824D1072202210120FFF7A8FFAC
:1089E40008B107281CD1042202210020FFF7A0FFB0
:1089F40008B1072814D1236801332360E0E70B4A48
:108A04001368013B1360002BDAD1FFF7B7FF00288E
:108A1400D6D0074B1B68002BD2D0BDE810401847B6
:108A2400034B1B68002BE6D09847E4E78033002013
:108A34007C33002076DF70477ADF70477CDF704735
:108A44007FDF70478FDF7047B1DF7047FEF750B9A3
:108A54000388212B13B5044645D007D8112B30D0F9
:108A6400132B4ED0102B0CD002B010BD522B50D073
:108A7400562B01D03B2BF7D1A0881321FFF7DAFF47
:108A840018E0284B28482949C01AC008000440F0BF
:108A94000300FDF7C1FF264B012207201A70FFF7E0
:108AA4003BFF08B1FEF724F9224BA1882248198024
:108AB40001F0ECFB0028D7D002B0BDE81040FEF76F
:108AC40017B9184B18481D49C01AC008000440F0D3
:108AD4000300FDF7A1FF164B00221A70154B4FF649
:108AE400FF721A80C0E7002380888DF8043001A942
:108AF4008DF80530FFF7A6FF0028B5D0FEF7F8F88B
:108B0400B2E70C4800231A4685210088FFF798FF36
:108B1400D0E7084800231A4619460088FFF794FF57
:108B2400C8E700BFB4AD0200E4AD0200BEB4020069
:108B34004C340020BC2A0020C8360020C8B40200EF
:108B440008B503784BB9054B3B211888FFF772FF32
:108B540018B1BDE80840FEF7CBB808BDBC2A002018
:108B640070B5037A012B27D003782BB31849194C1D
:108B74000B7822781848012B0AD1F2B1531EDBB2CC
:108B8400164D2B70CA2505FB0303012583F8C85035
:108B9400CA2303FB020595F8C85085B901260E7057
:108BA40002FB03006421FFF73BFD23783344DBB26F
:108BB400092B94BF2370257070BD0923E0E70023BF
:108BC4000B70BDE8704006486421FFF729BD00BF63
:108BD400A4370020E9420020043B0020A5370020F0
:108BE400D4360020032808B507D10220FFF794FEED
:108BF40018B1BDE80840FEF77BB808BD2DE9F04187
:108C04000578064645BB154C154BDFF85880E41A29
:108C1400E408240444F00104B28A95420AD3336977
:108C2400134413F8013C0D2B16D10A20FEF78EFBDA
:108C34001128F9E73369585DFEF788FB074648B108
:108C44001128F7D0024641462046FDF7E9FE384692
:108C5400FEF74EF80135DFE7BDE8F081E4AD020030
:108C6400B4AD0200D5B40200024B4FF40062C3F865
:108C7400082570470003005038B5054D642445F0BD
:108C840001054FF47A40A847013CFAD138BD00BF32
:108C940030B502000C4B4A881B889A4212D10A88CC
:108CA40040F677239A420DD1084A09488B8809492E
:108CB400801A033BC0089BB200041A4640F003002C
:108CC400FDF7B7BE704700BFBC2A0020B4AD020058
:108CD400E4AD020000B50200FEF70AB808B5084981
:108CE400084801F0B3F908B1FEF702F80548F72186
:108CF40001F0C0F918B1BDE80840FDF7F9BF08BD9F
:108D0400998C0200B036002030B502390023451C8E
:108D1400DCB2A24200D830BD31F8024F240A00F878
:108D240013400C8805F813400133F1E7F7B5274BDE
:108D34001B78012B47D1264C264D2178CA2606FBE9
:108D4400015393F8C830012B3DD1C82301FB0651D0
:108D54002148ADF806306422FFF7D6FF23781F4F71
:108D640006FB035500231E4E85F8C830054633889C
:108D74000DF106022946384601F002FC082806D007
:108D84001328F4D0052802D008B1FDF7B1FF2378E9
:108D94000133DBB2092B00D900232370114C226864
:108DA400A02192FBF1F301FB13234BB90E480F4BA7
:108DB4000F49C01AC008000440F00300FDF730FE5C
:108DC40023680133236003B0F0BD00BF4C3400209E
:108DD400E8420020043B002084330020C02A002005
:108DE400BC2A002050340020E4AD0200B4AD0200DF
:108DF4001CB5020008B5074A074B11781B78994245
:108E040004D0012B137002D0FFF752FC08BDFFF70A
:108E1400EDFBFBE74D3400204C34002070B5754960
:108E24007548ACB0FFF770FBFFF742FC01F0F6FDAC
:108E34004FF400410020FDF733FC08B1FDF758FF63
:108E4400FDF762FBFFF718FFFEF7CCF908B1FDF759
:108E54004FFFFEF719FE08B1FDF74AFFFFF70CFFBD
:108E640001F00CFC08B1FDF743FF002301A9012028
:108E7400019301F095FC08B1FDF73AFF01A801F058
:108E84005FFD08B1FDF734FF11235C488DF8003015
:108E940001F01FFF594982B26846FFF7CFFD08B1C0
:108EA400FDF726FF0822002101A801F0BDFE1023D2
:108EB400ADF804303C23ADF806300023ADF808309B
:108EC40001A84FF4C873ADF80A30FFF7B5FD08B137
:108ED400FDF70EFFFFF702FF494B4A48019301A932
:108EE40001F0C2F908B1FDF703FF0021042268462E
:108EF40001F09AFE444B45480093694601F0C6FAD6
:108F040008B1FDF7F5FEAC22002101A801F08CFEAA
:108F140002238DF804304FF4A0633D4AADF80630C7
:108F24000123ADF8503015928DF880304FF49672CD
:108F340044F25063CDE923233648374B2A9301A9E1
:108F440000F0BAFB08B1FDF7D3FE3248012100F06E
:108F5400B0FB1C22002101A801F066FE00234FF49F
:108F64002032CDE90132ADF812304FF470228DF881
:108F740014302A4B039206930322294B8DF81020B8
:108F840001A8079300F058FE08B1FDF7B1FEFFF702
:108F940073FE2048032100F006FC08B1FDF7A8FE8B
:108FA400204B21482149224C224D234E0322C3F851
:108FB4002C27FFF759FE214BC01AC008000440F0CB
:108FC4000300FDF729FD00232360FEF7A5F92860BF
:108FD400FDF7C0FBFEF76EFDFFF70CFFFFF7A6FEE3
:108FE400FEF79AF92B683060C01A2060FFF73CFE48
:108FF400EBE700BF658B0200E42A002020B50200E5
:10900400518A0200C8360020018C0200C02A0020C8
:10901400B82A002058340020E98B0200458B020056
:10902400DD8C020000030050E4AD020028B502000C
:1090340054340020A03700209C370020B4AD020037
:109044000369C26893429CBF80681B18013B981A4D
:1090540070472DE9F843D0E902940546A9EB0408CA
:109064004068904520440F46144404D901F0B3FDF0
:10907400EC60BDE8F8834246A4EB090401F0ABFDC3
:109084006868224607EB0801F0E72DE9F843C56854
:109094000646894617464FF000083469B36870687D
:1090A400A54228BFE418013C621B5C1BBC4228BFDC
:1090B4003C46944228BF144649462844224601F0BF
:1090C4008AFDB3682544AB4208BF00253F1BA0447A
:1090D400A144F560E1D14046BDE8F88310B5114CD8
:1090E400114AA2610223C4E90433104BE361A26470
:1090F4004FF400730E4A0F492362E26400231022E6
:10910400E01DA3626362E362A3656365E3652265B0
:1091140001F0BDFD0849204601F0B9FD2023A371EB
:1091240010BD00BFA837002036B50200303800203B
:10913400203800203FB5020043B5020070B5164B3D
:10914400182400FB04451D4404FB00331646DC6A66
:10915400012C0ED0022C18D0E4B92846FFF770FF7A
:10916400864204D832462846FFF773FF3446204629
:1091740070BD2846FFF764FF8642344628BF044684
:1091840022462846FFF765FFF1E72846BDE8704010
:10919400FFF77BBF0024EAE7A8370020FFF79EBF54
:1091A4006DDF704779DF70477DDF704764DF70479C
:1091B4002DE9F04F85B000250E9CBDF83CB0B4F805
:1091C40000A00191074690461E46A9463A884A45A2
:1091D4000DDC45B12388013BA3EB0A039BB2FF2BB3
:1091E4003AD806F80A30002005B0BDE8F08F7A6856
:1091F40052F82900039000220DF10B0103A8FFF798
:10920400D5FF0028F0D19DF80B20424521D12288BA
:10921400002D14BF0020022002EB0801014459452F
:109224001ADC3DB9013292B2019B2280B3542288E8
:109234000132228022880DF10B01324403A8FFF78A
:10924400B5FF0028D0D121889DF80B200A44228044
:10925400012509F10109B9E70C20C5E72DE9F3411E
:10926400089FBDF824801546CDE900780222044603
:109274001E46FFF79DFF50B933461022294620466B
:10928400CDE9087802B0BDE8F041FFF791BF02B024
:10929400BDE8F0812DE9F04F00231788138090F882
:1092A4002D3085B006460D46144653B3082F01D819
:1092B4000C2027E102A8FFF773FF002840F0228169
:1092C40023880822EA54238801339BB21B2223807B
:1092D400EA542088013080B2208006220DF1090171
:1092E400284401F078FC23889DF8082006339BB2BB
:1092F40012F0FE0218BF01222380EA5423880133AE
:109304002380B378FBB123880433BB42D0D802A8AE
:10931400FFF748FF002840F0F58023880322EA5431
:10932400238801339BB219222380EA542388BDF891
:10933400082001339BB2E9182380EA54120A4A70C8
:10934400238802332380F2789AB12388D91CB94246
:10935400AED80221E954238801339BB20121238032
:10936400E95423880B449BB22380EA5423880B449A
:1093740023807268AAB12388D91CB94298D80221E3
:1093840092F90020E954238801339BB20A212380F7
:10939400E954238801339BB22380EA5423880133A0
:1093A40023803389002B40F0A180338A5BB1CDE95F
:1093B40000472B460722032106F11000FFF74EFF5A
:1093C400002840F09F80338B5BB1CDE900472B46EA
:1093D4001522142106F11800FFF740FF002840F081
:1093E4009180326A002A40F09080D6F82480B8F147
:1093F400000F30D0B8F804302188981C8A1C02442D
:10940400BA423FF655AFFE283FF652AF03336B54D2
:10941400238801339BB2FF222380EA54238801333B
:109424009BB22380B8F80020EA54E918120A4A7063
:109434002088023080B22080B8F804205AB1D8F8CD
:10944400081000296BD0284401F0C5FB2388B8F824
:1094540004201344238096F82C30002B40F098808D
:10946400307800284ED03388012B58D0228802F15E
:10947400020CBC453FF61CAF012805D173780233BA
:1094840013449F42FFF414AF023FBF1ABFB202A9B4
:1094940005EB0C00ADF80870FFF786FE90BB317841
:1094A400BDF80830022900F0B98072789A4202D3DC
:1094B4009F4280F0B180012940F0B280974293B27C
:1094C400C0F0AE80ADF808300821BDF80830FE2B9E
:1094D4003FF6EEAE22880133AB542288013292B2B9
:1094E4002280A9542288134423800BE0CDE900474D
:1094F4002B460622022106F10800FFF7AFFE0028E2
:109504003FF453AF05B0BDE8F08FB4F800C00CF1E0
:109514000603BB423FF6CCAE1188052901D80720CB
:10952400F0E76FF4486E01EB0E039BB24FF27D3E01
:109534007345F4D95388052BF1D96FF44860181892
:1095440080B27045EBD94FF6FF70814201D0994249
:10955400E5D8052305F80C30238801339BB212218A
:109564002380E954238801339BB223801188E95472
:10957400E818090A4170238802339BB22380528879
:10958400EA54E918120A4A702388023323802CE72C
:10959400B36A002BC3D04FF000084FF00C0A4FF011
:1095A400160BB16A5FFA88F20AFB02F201EB0209B8
:1095B400B9F80430981CFE283FF67AAE20880333AD
:1095C4002B54238801339BB2238005F803B02388EE
:1095D40001339BB223808A5AEA54E918120A4A706A
:1095E4002088023080B22080B9F804205AB1D9F81A
:1095F4000810002993D0284401F0EDFA2388B9F823
:1096040004201344238096F82C2008F101085FFA03
:1096140088F39A42C5D823E7092156E79F42FBD233
:10962400ADF8087050E770B5C0B14AB1168800248F
:10963400B44203D305196D789D4208D0A14201D8E4
:1096440000200BE0055D01352C44A4B2F0E7A142F3
:10965400F6D9A31C1380005D013880B270BD13B528
:1096640013460022ADF806200DF106020446FFF76A
:10967400DAFF10B1BDF80630E01802B010BD72DF99
:10968400704773DF704738B5012204460D46B0F8C1
:109694003812D0F83402FFF7E2FF00B1057004F18C
:1096A4003C0204F50D7104F15400BDE83840FFF7A5
:1096B400E6BF80F830107047F8B504460F4600291D
:1096C4006DD000286BD091F87A301BB191F89830A6
:1096D400002B66D14FF0000C84F802C007F1780625
:1096E4000FCE251D0FC50FCE0FC596E8070085E8E0
:1096F400070084F830C0D7F8A4306363D7F8A830E3
:10970400A3634FF6FF7504F50D73C4F84432A4F84F
:1097140048520722614604F24A2001F085FA237870
:109724000BB984F8545094F82430002B14BFEE2362
:109734001F2304F15501C4F83412A4F8383204F597
:109744000E723846FFF7A6FD40BB94F82430002B78
:1097540014BFEE231F2304F24311C4F83C12A4F8EF
:10976400403204F5107207F13C00FFF793FDA8B9ED
:10977400A369A4F848304FF480730125A4F850304D
:1097840063692064014684F83C50636404F13C023C
:1097940004F15400FFF773FF00B92570F8BD0E20E3
:1097A400FCE70720FAE7F8B5077804460D46002FD2
:1097B40000F0098100F24A26817007220021304618
:1097C40001F032FAE38813B1A378012B04D0E379D2
:1097D4004BB1A378022B06D1636BABB1012284F8A1
:1097E40051220820984704F24B2304F2512113F824
:1097F400012B12B99942FAD117466B1E032B54D888
:10980400DFE803F0050B0F1284F85132EBE7A3797C
:109814001BB194F8243003B95FB9E3790BB1002F7D
:1098240045D1237A002B44D1637A002B0CBF002549
:109834000425636BA570002B3DD0033D012D3AD860
:109844006279002A37D094F85222A2BB84F85422B9
:10985400012284F853220720984704F13C05002193
:109864001822284601F0E0F9E16A0123481E9842D3
:1098740084F83C3001D9042900D1CBB294F82420D7
:1098840084F8513032B1012819D9042917D00123A1
:1098940084F85230A178002384F8503004291DD86C
:1098A400DFE801F0790F24375B000025C1E70225CA
:1098B400BFE70325BDE7002384F85332CDE7A36A4D
:1098C400E6E7C4E91063C4F844320223012284F8B1
:1098D4003C30802384F83120A4F84830A378002B4E
:1098E4005CD1636B002B6AD1002067E00223002A5D
:1098F40084F8313014BF0723032384F83C302369F0
:10990400A4F848300023C4F84432E368266463644E
:10991400E4E763696364A369A4F8483012B10623D9
:1099240084F83C306379B3B194F852329BB994F81B
:10993400543283B1022384F8503004212046FFF7C7
:10994400A2FE0028CAD1052384F8313004F50D7332
:10995400C4F84432C2E70323F6E7E3696364236A85
:10996400A4F8483012B1062384F83C30637983B1FB
:1099740094F852326BB994F8543253B1022384F8F8
:10998400503004212046FFF77EFE0028A6D106238E
:10999400DAE70423D8E784F831309FE7D4F8441297
:1099A4002A4604F15400FFF76AFE38B994F83010DF
:1099B40094F85400FFF765FE002892D0F8BD94F89F
:1099C4003100984790E70820F8E70388112B10B579
:1099D4000C460AD0262B1FD0102B05D1C37B012B9C
:1099E40002D18388A1F8483210BD0022838881F80F
:1099F4005222B1F848229A42F6D10B79002BF3D1C6
:109A040001212046FFF7CFFE0028EDD0A36B002BE9
:109A1400EAD0BDE810401847037A013B012BE3D894
:109A2400897805230131B1FBF3F303EB8303C91AEE
:109A3400C9B2E6E7704775DF704776DF70477ADFB3
:109A440070477BDF70470000034B1A8882420CBFCB
:109A540018460020704700BF4C3A0020024B9B6917
:109A640003B11847704700BF303A002073B585B280
:109A74002846FFF7E9FF044638B3174E027A337BD2
:109A84009A420CD200F10A012846FFF7D4FFF0B144
:109A940011281AD002B0BDE87040FFF7DFBF0023E1
:109AA4000372337C43B13B212846FFF7C6FF30F0F5
:109AB400080301D0FFF7D2FF736933B100228DF898
:109AC4000420ADF8065001A8984702B070BD237A6F
:109AD40001332372F9E700BF303A002037B50B4653
:109AE400497A0F4A79B9D2E901141D7A0246002D48
:109AF40018BF21465868FDF7B7FB78B103B0BDE83D
:109B04003040FFF7ABBF00211972536933B1012212
:109B1400ADF806008DF8042001A8984703B030BDC5
:109B2400303A00204B8802889A4212D842889A42DE
:109B34000FD380888B8840F2F311884294BF021AB5
:109B4400421A9A4205D80844984234BF00200120A2
:109B540070470020704700000388122B70B501463F
:109B640059D004D8102B1ED0112B44D070BD502BCB
:109B7400FCD12F4BC288DB899A42F7D1038A022B8E
:109B8400F4D186883046FFF75FFF05460028EDD004
:109B940001F1120000F063F938BB6868FDF7ACFB13
:109BA4000028E3D009E0C37B012BDFD14FF6FF701F
:109BB400FFF74AFF054620B90420BDE87040FFF7CF
:109BC4004DBF1C4A8E880680002303721368C0F8B8
:109BD4000A305368C0F80E3010310A30FFF7A2FF84
:109BE400134B6872DB89002BC0D129463046BDE88F
:109BF4007040FFF773BF8088FFF726FF04460028F4
:109C0400B4D04068FDF778FB08B1FFF727FF4FF6A3
:109C1400FF732380AAE786883046FFF715FF0546C1
:109C24000028A3D008310A30FFF77CFF6872DCE714
:109C3400303A0020603A0020F8B5064648B305469D
:109C44000FCD154F3C460FC495E8070084E8070084
:109C54003068124C3C60B0B1FFF7F1FEC0B9326815
:109C640013682360536863600D480E4A4FF6FF7310
:109C740003800D4B40F8043F0021FDF7E3FA002870
:109C840018BF032004E02046FFF7DBFE0028EBD0DA
:109C9400F8BD0E20FCE700BF303A0020603A0020F7
:109CA4004C3A0020719A0200683A002073B5019181
:109CB400019C06466CB100252C46294601A8FDF7F7
:109CC400BAFB18B106EB440301349D800135142D11
:109CD400F3D13046346002B070BD00002DE9F04786
:109CE40003888488112B8CB005463DD01A2B42D0B2
:109CF400102B19D1DFF8C080D8F80830DB4300936B
:109D0400D8F804106846FDF7C2FB009901A8FFF7D4
:109D1400CDFF0DF108090027019B9F4207D3132CA7
:109D240012D90420FCF7E4FF0CB0BDE8F08739F841
:109D340002AB00260136514608EB8600FDF771FBA5
:109D44001D2EF7D10137E7E716482146FDF760FBE2
:109D540015482146FDF75CFBEB7B012BE4D013484F
:109D64002146FDF755FBDFE70E4821460CB0BDE860
:109D7400F047FDF756BB037A0D481F2B4FEA131526
:109D840021460AD9FDF744FB022D0A482146EDD0AD
:109D94000CB0BDE8F047FDF73BBBFDF742FB0548BF
:109DA4002146E3E7903A00208C3A0020943A0020C0
:109DB400983A00209C3A0020883A00201328014653
:109DC40002D80248FDF737BB002070478C3A0020C8
:109DD40010B50446FFF7F2FF002814BF20461420F4
:109DE40010BD70B50546164608460AB90E2070BD6A
:109DF40000231360002DF9D02B68002BF6D0EB88DC
:109E040013F003040ED1FFF7E3FFC0B214280BD004
:109E14002B7983420AD9EA882B6800FB0230306030
:109E24002046E4E70720E2E70520E0E70420DEE738
:109E3400AADF7047002301380B70042806D8DFE836
:109E440000F00306080A0C0011230B70704721234D
:109E5400FBE73123F9E71223F7E72223F5E700882C
:109E640000F001007047F0B58B7891B0012B0C46DF
:109E740038BF01238DF80E3005460B88ADF80C3041
:109E8400002116466846032200F0CEFE607C694637
:109E9400FFF7D0FFA07C0DF10101FFF7CBFFE27BC0
:109EA400237B217D43EAC203227C43EA02139DF80B
:109EB4000220002922F0190203F0190314BF022121
:109EC4000121134361F342031C22002109A88DF8E8
:109ED400023000F0A9FE637B13F0300F15D002AFFF
:109EE40003220021384600F09FFEE07C0DF10901B9
:109EF400FFF7A0FF11238DF808309DF80A300E9764
:109F0400012262F342038DF80A30637B8DF824301A
:109F14001422A37B8DF82530002104A800F084FED0
:109F240003AB0493A388ADF81C30A368CDF814D018
:109F34001BB1E288ADF818200893A369002B31D037
:109F440001AF03220021384600F06EFEA3691A888F
:109F5400ADF82C205A88ADF82E205A680D97187B3E
:109F64000A923946FFF766FFA3690DF10501587B94
:109F7400FFF760FFA3699A7A197A41EAC201DA7A93
:109F84009B7B41EA02119DF80620002B01F0190188
:109F940022F0190214BF02230123114363F3420187
:109FA4008DF80610E36903B10C93334604AA09A99A
:109FB4002846FFF73DFF11B0F0BD90DF7047A5DFE5
:109FC4007047B5DF704700007FB50023ADF8081077
:109FD400ADF80A106A4602A90646ADF80C30ADF891
:109FE4000E300093ADF80430FFF7E7FF054600B3E9
:109FF400114B124CE41AE408FDF7C2FD240444F0AA
:10A00400010403460E4932462046FCF712FDBDF812
:10A014000020BDF8023052EA030103D0094920466A
:10A02400FCF707FDBDF804201AB107492046FCF7E8
:10A03400F7FC284604B070BDB4AD0200FCAD0200CC
:10A044004AB5020094B50200D3B5020080B14FF0C6
:10A05400F7130360FB230371F723C38017230381E2
:10A0640041F6FB3200230161438182811846704727
:10A074000E20704730B1A1F11703E02B04D8018002
:10A08400002070470E2070470720704713B5034621
:10A0940080880C46B8B91A88242A00F09C8014D809
:10A0A400112A74D0232A00F0A780102A3ED0A37A64
:10A0B4004BB1E1880020FFF782FF002840F0A28026
:10A0C4004FF48073638102B010BD3A2A68D0552AD8
:10A0D400EDD1DB88C988A072172B38BF17238B42B8
:10A0E40028BF0B462381FFF76CFF60B1FDF748FDE5
:10A0F4004E4B4F4902464F481B1ADB081B0443F0E2
:10A104000100FCF78DFCE27A002AD0D12369002BF0
:10A11400CDD040F67721ADF802202289ADF80010A9
:10A12400ADF80420694620469847C0E7DB7B0A79EE
:10A134000A73012B13D0022B14D0E18823898B429C
:10A1440005D20020FFF73BFF70B90123E372217BA6
:10A15400637B8B42ABD20020FFF736FFA7E70B8867
:10A16400E380EAE74B88FBE7112802D10123A372BD
:10A17400EDE7FDF705FD2D4B2F4902462D481B1A2F
:10A18400DB081B0443F00100FCF74AFCDFE7F7237C
:10A19400CB8017230B8141F6FB3348818B8186E703
:10A1A4005B89CA88934228BF1346172B0A6938BFB4
:10A1B40017230B8162B1C97A51B140F67721ADF80A
:10A1C4000010ADF80200ADF804306946204690470F
:10A1D400002363816BE71A7A0B694A73002B3FF4FF
:10A1E40066AF4DF67A218DF80500ADF80010ADF894
:10A1F40002008DF8042095E7197A237B994228BF41
:10A204001946A9E711283FF45EAFFDF7B9FC074BE7
:10A214000949024607481B1ADB081B0443F00100E6
:10A2240002B0BDE81040FCF7FBBB00BFFCAD020070
:10A234005AB60200B4AD020029B60200B0DF70477E
:10A2440066DF704710B5002104464088FFF7F8FF29
:10A25400034608B9237210BD112801D10123F9E77F
:10A264006368BDE81040184760B159B10378DE2B2C
:10A274000AD00B684360DE2303704FF6FF734380FC
:10A28400002070470E2070470820704728B10378DB
:10A29400DE2B04D14180002070470E207047082037
:10A2A4007047F0B5054685B00C46002942D0002819
:10A2B40040D00B78DE2B3DD182884B889A4204D162
:10A2C4000B7A13B10846FFF7BDFF2B88112B33D04F
:10A2D400512B0FD0012B2DD12B7A012B2AD1A988F8
:10A2E4006288914226D12046237205B0BDE8F04031
:10A2F400FFF7A8BFAE886388B3421BD1AF79022FA2
:10A3040018D1AD7B2B1F022B14D8002110226846D4
:10A3140000F08AFC052D18BF4FF4C073694630461F
:10A3240018BFADF804308DF80070FFF787FF08B14F
:10A334006368984705B0F0BD6388AA889A4204BF51
:10A344004FF6FF736380F5E7A8DF7047ADDF704712
:10A35400AEDF704762DF704770B505468AB00C46C1
:10A36400002962D0002860D00388502B37D0572BA7
:10A3740072D0102B59D181886069002601AA0196F8
:10A38400FFF72FFD082231460DEB020000F04CFCD4
:10A394000223218AA888CDF80CD002AA0293FFF7E1
:10A3A400D5FF002841D1A369002B3ED00398FFF7C5
:10A3B40056FD002839D0019B0BB101221A701822D6
:10A3C400002104A800F030FC02238DF81030AB8883
:10A3D400ADF81830019B05940793A36923E08188A5
:10A3E400606902AAFFF7FDFC1822002104A800F00E
:10A3F4001BFCAB882189ADF81830EB88029A0594D0
:10A404009942079218D12E8A022E15D16AB105F10C
:10A414001200FFF724FD029B48B101221A708DF847
:10A424001060A3690BB104A898470AB070BD1870F6
:10A4340003238DF81030F4E7A2899A42F5D1A36979
:10A44400002BF2D000228DF8102005F112020892A0
:10A454002A8AADF82420E6E78188606902AAFFF71A
:10A46400C0FC01460028E0D1029B1B78002BDCD005
:10A47400182204A800F0D8FB01238DF81030AB8813
:10A48400ADF818300594029BA6E70000F0B53A4BEE
:10A494008FB002AD04460A4603F1100C2F4618682B
:10A4A40059682E4603C6083363453546F7D1002C58
:10A4B4005FD0002A5DD01368A36121463846FFF7B8
:10A4C40049FF002853D12246012512F8023B8DF89A
:10A4D400063001A92846ADF80450FFF735FF0028DF
:10A4E40045D10146202206A800F09EFB2246022305
:10A4F400ADF8183012F80C3B8DF81A30BDF8243042
:10A504001E4E6088079623F44F6323F00F0343F431
:10A5140040632B4306A9ADF824308DF829508DF8FB
:10A524002A50FFF7A0FC10BB0146202206A800F029
:10A534007BFB22460323ADF8183012F8043B8DF858
:10A544001A30BDF824306088079623F4875323F02B
:10A554001F0343F480532B43ADF8243006A940F283
:10A5640001138DF82950ADF82A30FFF77CFC0FB0A9
:10A57400F0BD0E20FBE700BF9EB60200F400010010
:10A58400F0B50F4687B016461C46054618B3406919
:10A5940001AA1946FFF725FCD8B94FF6FF739C4270
:10A5A4001BD0019BCBB11B78CBB13388F42B18D8CB
:10A5B4000146102202A800F037FBAB88ADF8083042
:10A5C40002A901232046CDE904678DF80A30FFF77C
:10A5D400BFFE07B0F0BD0E20FBE70520F9E7082019
:10A5E400F7E70720F5E710DF7047000013B50446CE
:10A5F40009496846FDF78FFA019808B902B010BD01
:10A60400D0E900212046904718B16846FDF78DFA3D
:10A61400F2E71120F2E700BFBCB6020013B504460E
:10A6240007496846FDF777FA019B0BB902B010BDE4
:10A634002046D3E9002190476846FDF776FAF3E710
:10A64400D4B602000B4991F816335A09EC2313418E
:10A65400DB0706D5084B9A683AB94FF480030B60C0
:10A66400704742F20200FCF743BB1A6842F48002CE
:10A674001A60704700E100E00C320020F7B5194F72
:10A684003C7864BB184E012520463570FFF7AEFFB9
:10A69400112821D02046FFF7C1FF144B8DF8034049
:10A6A400186801900DF10300FCF778FE104901A829
:10A6B400FFF799FF0446B0FA80F0400938709DF81E
:10A6C4000300FCF78FFE3CB90A4B34701C70FFF793
:10A6D400B9FF2846FFF7A2FF204603B0F0BD0824C7
:10A6E400FAE700BF013B0020003B0020B6B60200A1
:10A6F400116D0200023B0020014B1878704700BF27
:10A70400013B002007B508496846FDF704FA019BA0
:10A7140013B903B05DF804FBD3E900209047684601
:10A72400FDF703FAF3E700BFC8B60200FFF7EABF7C
:10A7340060DF704769DF704761DF704730B5134DE4
:10A74400ADF5017D4FF4FA740DF1020103A8ADF8E3
:10A754000240FFF7F1FF70B9294601A8FDF7DBF9C4
:10A76400029B002BF0D003A8D3E90021904701A855
:10A77400FDF7DBF9F4E7052805D00DF5017DBDE80B
:10A784003040FCF7B5BA0DF5017D30BD5CB902006F
:10A79400024B1B780BB1FFF7D1BF7047033B00207E
:10A7A40030B5054685B00C46002900F0B5805B4BFA
:10A7B4000B600C22002101A800F036FA01238DF869
:10A7C400063022688DF80450062301A92020ADF834
:10A7D4000830FFF7AFFF60B1FDF7D2F9504B514994
:10A7E400024651481B1ADB081B0443F00100FCF726
:10A7F40017F90C22002101A800F016FA01238DF8A4
:10A8040005302268002301A94020ADF80630FFF787
:10A8140091FF60B1FDF7B4F9414B44490246424807
:10A824001B1ADB081B0443F00100FCF7F9F80C22A7
:10A83400002101A800F0F8F9F72322688DF80450EC
:10A8440001A92320ADF80630FFF774FF60B1FDF7CE
:10A8540097F9334B3649024633481B1ADB081B046D
:10A8640043F00100FCF7DCF80C22002101A800F001
:10A87400DBF9012022688DF8040001A9FFF75AFFD3
:10A8840060B1FDF77DF9264B2A49024626481B1A7A
:10A89400DB081B0443F00100FCF7C2F80C22002182
:10A8A40001A800F0C1F94FF4B0632268019301A933
:10A8B400A120FFF73FFF60B1FDF762F9184B1E4975
:10A8C400024619481B1ADB081B0443F00100FCF77D
:10A8D400A7F80C22002101A800F0A6F99DF8043085
:10A8E40022686FF3000301A9A0208DF80430FFF75C
:10A8F40021FF034668B1FDF743F9094B0F490246AE
:10A9040009481B1ADB081B0443F00100FCF788F814
:10A914000023184605B030BD0E23FAE7982A00201C
:10A924000CAE0200E0B60200B4AD020026B702008D
:10A9340072B70200B9B7020005B8020056B80200A7
:10A9440073B505460668FFF7F3FE2B68B342044669
:10A954001DD91A481A4B1B491B1ADB081B0443F068
:10A9640002000190FCF758F82B6817490198324609
:10A97400FCF75FF84FF080532A68D3F80C31134981
:10A9840001989B0203F100539A1AFCF749F82CB979
:10A994000F4B01221A70204602B070BD2046FDF70D
:10A9A400EFF8074B0B49024604481B1ADB081B044B
:10A9B40043F00100FCF734F8EDE700BFB4AD02004A
:10A9C4000CAE0200A9B80200D8B8020009B902000E
:10A9D400033B002033B902004BDF70471FB50E4C18
:10A9E40001A8FFF7F9FF70B9214602A8FDF793F813
:10A9F400039B002BF4D00198D3E90021904702A8CF
:10AA0400FDF793F8F4E7052804D004B0BDE810403E
:10AA1400FCF76EB904B010BD74B9020038B5084B28
:10AA2400084D00241C70084B1C702846CA220021C3
:10AA3400013400F0F9F80A2C05F1CA05F5D138BD46
:10AA4400E9420020043B0020E842002053EA020CC3
:10AA540061D02DE9F04BB3FA83F51E0007BFB2FABB
:10AA640082F502FA05F403FA05F41646C5F1200549
:10AA74001EBF22FA05F73C43203556EA044C4FEA40
:10AA8400144418BF0134A3464FF00009C84690424D
:10AA940071EB030C39D3094207BFB0FA80F700FA0F
:10AAA40007F6B1FA81F701FA07F6C7F120071EBFCE
:10AAB40020FA07FC46EA0C062037B6FBFBFC7F1B9A
:10AAC400103F07F01F04C4F120060CFA04F42CFA1A
:10AAD40006F644BF34460026202FA4BF2646002491
:10AAE40054EA060C08BF012418EB040849EB0609D4
:10AAF400A4FB027CC01B06FB02CC04FB03CC71EB61
:10AB04000C01904271EB030CC5D20B460246494638
:10AB14004046BDE8F08BB2FBF3F200007F2805D875
:10AB2400034B185C034B5B5C184070470020704774
:10AB34008CB902000CBA0200A0F16103192B98BF72
:10AB440020387047A0F14103192B98BF203070477B
:10AB54007F2805D8034B185C034B5B5C1840704797
:10AB6400002070478CB902000CBA0200A0F1610306
:10AB7400192B98BF20387047A0F14103192B98BFB7
:10AB8400203070477F299ABF017001206FF02E009A
:10AB940070475AB10A787F2A0AD800B102600021AE
:10ABA40019605960501A18BF01207047002070477F
:10ABB4006FF02E007047000008B5034B5B689B687C
:10ABC4001B68984708BD00BFF02A002008B509217A
:10ABD400FFF7F2FF08BD844640EA010313F0030FB8
:10ABE40018D18446202A0BD32DE9F007B1E8F807E1
:10ABF400A0E8F807A2F12002202AF7D2BDE8F00766
:10AC0400042A07D351F8043B40F8043BA2F10402A0
:10AC1400042AF7D2002A05D011F8013B00F8013BC1
:10AC2400013AF9D1604670478446002A2DD010F0CD
:10AC3400030F04D000F8011B013A26D0F7E7C9B28C
:10AC440041EA012141EA0141202A12D3A2F1200262
:10AC54002DE9F0030B460C460D460E460F4688467A
:10AC64008946A0E8FA03203AFBD2BDE8F00320327B
:10AC74000BD0042A05D340F8041B043A05D0042A57
:10AC8400F9D200F8011B013AFBD160467047024635
:10AC940010F0030F16D111F0030F13D12DE9F000BA
:10ACA4004FF001374FF0803351F8044BA4EB070504
:10ACB40025EA04051D4002D142F8044BF4E7A1F152
:10ACC4000401F0BC11F8013B02F8013B002BF9D15F
:10ACD400704700F1010110F0030F11D010F8012B9F
:10ACE400002A23D010F0030F0AD010F8012B002AF9
:10ACF4001CD010F0030F03D010F8012B002A15D03C
:10AD04002DE970004FF001324FF0803350F8044BBE
:10AD1400A4EB020525EA04051D4000D1F6E7A0F1E5
:10AD2400040070BC10F8012B002AFBD1A0EB010039
:02AD3400704766
:10AD3800997E020000000000399A02005834002071
:10AD4800E19C020000000000B98902000000000038
:10AD5800CF9902005834002091A00200B03600209C
:10AD68005D9B020000000000A7A20200C836002078
:10AD78005DA30200C02A0020558A020000000000DE
:10AD880095A7020000000000E1A9020000000000F1
:08AD9800197F02000000000019
:10ADA000482B0020102C0020182C0020502B0020B5
:04ADB0001800000087
:10ADB4009EB4020000000000A4B4020000000000E1
:10ADC400BAB4020000000000ABB4020000000000AE
:10ADD400AFB4020000000000B4B4020000000000A0
:10ADE40075AE02000000030396B6020000000000E6
:10ADF40098B402000000000089B6020000000303BA
:10AE0400AEB602000000030350B9020000000303C1
:10AE140068B902000000030386AF020000000000CE
:10AE240048AE02000000000054AE0200982A002040
:10AE34000000000000000000000000000338FDD8FE
:10AE440070470000D963020045640200D563020024
:10AE54007274745F6C6F675F6261636B656E6400CC
:10AE64004261636B656E647320666C7573686564B8
:10AE740000617070000000003C3000207F00000082
:10AE8400BC3000201B5B313B33316D0025734C6FAC
:10AE940067732064726F70706564202825642925A7
:10AEA400730D0A001B5B306D002573003C25733E57
:10AEB4002025733A200020253032780020202000FD
:10AEC4007C002563001B5B313B33306D001B5B3121
:10AED4003B33326D001B5B313B33336D001B5B3105
:10AEE4003B33346D001B5B313B33356D001B5B31F1
:10AEF4003B33366D001B5B313B33376D007761723A
:10AF04006E696E6700696E666F00646562756700DE
:10AF1400A8AE0200C9AE020088AE0200D1AE0200A3
:10AF2400D9AE0200E1AE0200E9AE0200F1AE0200C9
:10AF3400F9AE02000000000052AF020001AF0200AF
:10AF440009AF02000EAF0200466174616C206572A5
:10AF5400726F720053797374656D207265736574D2
:10AF64000000000000000000000000000338FDD8CD
:10AF740070473031323334353637383941424344FF
:10AF840045467077725F6D676D74000088AD02008E
:10AF940088AD0200040000004E52465F53554343FF
:10AFA400455353004E52465F4552524F525F5356DB
:10AFB400435F48414E444C45525F4D495353494EBB
:10AFC40047004E52465F4552524F525F534F4654CC
:10AFD4004445564943455F4E4F545F454E41424CAC
:10AFE4004544004E52465F4552524F525F494E54BB
:10AFF40045524E414C004E52465F4552524F525FAD
:10B004004E4F5F4D454D004E52465F4552524F5292
:10B014005F4E4F545F464F554E44004E52465F4577
:10B0240052524F525F4E4F545F535550504F5254EB
:10B034004544004E52465F4552524F525F494E5668
:10B04400414C49445F504152414D004E52465F4588
:10B0540052524F525F494E56414C49445F535441FA
:10B064005445004E52465F4552524F525F494E5628
:10B07400414C49445F4C454E475448004E52465F4C
:10B084004552524F525F494E56414C49445F464CDB
:10B09400414753004E52465F4552524F525F494E0C
:10B0A40056414C49445F44415441004E52465F4529
:10B0B40052524F525F444154415F53495A45004EE6
:10B0C40052465F4552524F525F54494D454F555475
:10B0D400004E52465F4552524F525F4E554C4C0003
:10B0E4004E52465F4552524F525F464F5242494478
:10B0F40044454E004E52465F4552524F525F494EB0
:10B1040056414C49445F41444452004E52465F45C7
:10B1140052524F525F42555359004E52465F455268
:10B12400524F525F434F4E4E5F434F554E54004E65
:10B1340052465F4552524F525F5245534F55524308
:10B144004553004E52465F4552524F525F4D4F4455
:10B15400554C455F4E4F545F494E495449414C4903
:10B164005A4544004E52465F4552524F525F4D5528
:10B174005445585F494E49545F4641494C45440043
:10B184004E52465F4552524F525F4D555445585F9B
:10B194004C4F434B5F4641494C4544004E52465F39
:10B1A4004552524F525F4D555445585F554E4C4F82
:10B1B400434B5F4641494C4544004E52465F45521D
:10B1C400524F525F4D555445585F434F4E445F496B
:10B1D4004E49545F4641494C4544004E52465F45F2
:10B1E40052524F525F4D4F44554C455F414C52456E
:10B1F4004144595F494E495449414C495A454400D8
:10B204004E52465F4552524F525F53544F5241473C
:10B21400455F46554C4C004E52465F4552524F5284
:10B224005F4150495F4E4F545F494D504C454D4529
:10B234004E544544004E52465F4552524F525F466B
:10B244004541545552455F4E4F545F454E41424C23
:10B254004544004E52465F4552524F525F494F5F3C
:10B2640050454E44494E47004E52465F4552524F58
:10B27400525F4452565F5457495F4552525F4F568E
:10B28400455252554E004E52465F4552524F525F00
:10B294004452565F5457495F4552525F414E4143B1
:10B2A4004B004E52465F4552524F525F4452565FD6
:10B2B4005457495F4552525F444E41434B004E52EE
:10B2C400465F4552524F525F424C455F495053507E
:10B2D4005F52585F504B545F5452554E434154454E
:10B2E40044004E52465F4552524F525F424C455FB6
:10B2F400495053505F4348414E4E454C5F414C5278
:10B30400454144595F455849535453004E52465F92
:10B314004552524F525F424C455F495053505F4C27
:10B32400494E4B5F444953434F4E4E454354454465
:10B33400004E52465F4552524F525F424C455F4960
:10B344005053505F504545525F52454A454354451A
:10B354004400556E6B6E6F776E206572726F72204B
:10B36400636F646500000000000000009CAF0200F1
:10B3740001000000A8AF020002000000C6AF0200F6
:10B3840003000000E7AF020004000000FAAF02006F
:10B39400050000000BB00200060000001FB0020010
:10B3A4000700000037B00200080000004FB00200A0
:10B3B4000900000067B002000A00000080B002002B
:10B3C4000B00000098B002000C000000AFB00200B7
:10B3D4000D000000C3B002000E000000D5B0020052
:10B3E4000F000000E4B0020010000000F8B00200FA
:10B3F400110000000FB10200120000001EB1020093
:10B404001300000033B102008000000047B10200C5
:10B414008100000068B102008200000084B10200D3
:10B4240083000000A0B1020084000000BEB102004D
:10B4340085000000DFB102008600000004B20200B3
:10B44400900000001BB202009100000039B202001B
:10B454009200000057B20200008200006CB20200A9
:10B46400018200008AB2020002820000A6B2020039
:10B4740000840000C2B2020001840000E6B20200AF
:10B484000284000010B302000384000035B30200FC
:10B494000D0E0F10636C6F636B00434C4F434B00F6
:10B4A4004750494F5445005052530055415254009F
:10B4B40055415254450050444D00436F6E6E6563D0
:10B4C40074656400446973636F6E6E656374656468
:10B4D400004661696C656420726563656976696EAE
:10B4E40067204E5553206D6573736167652E204543
:10B4F40072726F7220307825782E20004461746156
:10B50400206C656E2069732073657420746F20301D
:10B5140078255828256429002025640050444D5F6F
:10B52400424C450048656C6C6F200A000338FDD816
:10B5340070475465726D696E616C005254540053C7
:10B5440045474745520073645F626C655F6761708D
:10B554005F646174615F6C656E6774685F75706465
:10B5640061746528292028726571756573742920B2
:10B574006F6E20636F6E6E656374696F6E203078D2
:10B5840025782072657475726E65642025732E00AB
:10B5940054686520726571756573746564205458C8
:10B5A4002F5258207061636B6574206C656E6774EC
:10B5B4006820697320746F6F206C6F6E67206279E6
:10B5C4002025752F2575206F63746574732E0054C0
:10B5D40068652072657175657374656420636F6D49
:10B5E40062696E6174696F6E206F662054582061C1
:10B5F4006E64205258207061636B6574206C656EB4
:10B604006774687320697320746F6F206C6F6E6742
:10B61400206279202575206D6963726F7365636F8D
:10B624006E64732E0073645F626C655F676174742B
:10B63400635F65786368616E67655F6D74755F727B
:10B6440065717565737428292072657475726E65E9
:10B65400642025732E0073645F626C655F67617498
:10B6640074735F65786368616E67655F6D74755F39
:10B674007265706C7928292072657475726E6564C0
:10B684002025732E006E72665F626C655F6761745D
:10B694007400626C655F6E7573009ECADC240EE5EF
:10B6A400A9E093F3A3B50000406E6E72665F736405
:10B6B400680001000007000098AD020098AD020088
:10B6C4000800000088AD020098AD020008000000E8
:10B6D40098AD0200A0AD02000800000073645F6230
:10B6E4006C655F6366675F7365742829207265748F
:10B6F40075726E6564202573207768656E206174A9
:10B7040074656D7074696E6720746F20736574203E
:10B71400424C455F434F4E4E5F4346475F4741505F
:10B724002E0073645F626C655F6366675F73657444
:10B7340028292072657475726E65642025732077DC
:10B7440068656E20617474656D7074696E672074C9
:10B754006F2073657420424C455F4741505F4346F8
:10B76400475F524F4C455F434F554E542E00736410
:10B774005F626C655F6366675F7365742829207216
:10B78400657475726E6564202573207768656E2014
:10B79400617474656D7074696E6720746F2073656D
:10B7A4007420424C455F434F4E4E5F4346475F47CC
:10B7B4004154542E0073645F626C655F6366675F17
:10B7C40073657428292072657475726E656420250A
:10B7D40073207768656E20617474656D7074696E2A
:10B7E4006720746F2073657420424C455F434F4D4E
:10B7F4004D4F4E5F4346475F56535F555549442E60
:10B804000073645F626C655F6366675F7365742869
:10B81400292072657475726E6564202573207768BB
:10B82400656E20617474656D7074696E6720746FE1
:10B834002073657420424C455F47415454535F4321
:10B8440046475F415454525F5441425F53495A45FD
:10B854002E0073645F626C655F6366675F73657413
:10B8640028292072657475726E65642025732077AB
:10B8740068656E20617474656D7074696E67207498
:10B884006F2073657420424C455F47415454535FA5
:10B894004346475F534552564943455F4348414EEB
:10B8A4004745442E00496E73756666696369656E23
:10B8B400742052414D20616C6C6F63617465642027
:10B8C400666F722074686520536F66744465766988
:10B8D40063652E004368616E676520746865205255
:10B8E400414D207374617274206C6F636174696F6D
:10B8F4006E2066726F6D203078257820746F20304A
:10B904007825782E004D6178696D756D2052414D12
:10B914002073697A6520666F72206170706C696348
:10B924006174696F6E20697320307825782E0073F6
:10B93400645F626C655F656E61626C652829207264
:10B94400657475726E65642025732E006E72665F71
:10B954007364685F626C650048AD020088AD0200E4
:10B96400080000006E72665F7364685F736F630043
:10B9740038AD020048AD020008000000430000009A
:10B98400504F534958000000202020202020202020
:10B99400206828282828202020202020202020203B
:10B9A40020202020202020204810101010101010DB
:10B9B40010101010101010108484848484848484E3
:10B9C40084841010101010101081818181818101F4
:10B9D4000101010101010101010101010101010153
:10B9E40001010110101010101082828282828202E2
:10B9F4000202020202020202020202020202020223
:10BA04000202021010101020000703200417020184
:10BA1400085710408000000080B9020084BA020078
:10BA240098BB020053756E004D6F6E00547565002F
:10BA34005765640054687500467269005361740068
:10BA4400000000004A616E00466562004D617200AC
:10BA5400417072004D6179004A756E004A756C0040
:10BA640041756700536570004F6374004E6F760034
:10BA74004465630000000000414D00504D0000008B
:10BA8400BCBB0200B8BB0200B8BB0200B8BB0200DA
:10BA9400B8BB0200B8BB0200B8BB0200B8BB0200CE
:10BAA400B8BB0200B8BB0200FFFFFFFFFFFFFFFFB0
:10BAB400FFFFFFFFFFFF0000F8BA020028BA0200F0
:10BAC40034BB020048BA02007CBA0200DCBA0200AD
